:020000040000FA
:100000000C9458000C9480000C9480000C94800098
:100010000C9480000C9480000C9480000C94800060
:100020000C9480000C9480000C9480000C94800050
:100030000C9480000C9480000C9480000C94800040
:100040000C94B1030C9480000C9480000C948000FC
:100050000C9480000C9480000C9480000C94800020
:100060000C94FB030C948000000000002500280085
:100070002B00040404040404040402020202020229
:10008000030303030303010204081020408001025C
:1000900004081020010204081020000000080002DB
:1000A00001000003040700000000000000001A0522
:1000B00011241FBECFEFD8E0DEBFCDBF11E0A0E01E
:1000C000B1E0E2EFFCE002C005900D92A636B10768
:1000D000D9F722E0A6E6B1E001C01D92A134B20733
:1000E000E1F710E0C8E5D0E004C02197FE010E94CE
:1000F0007106C735D107C9F70E943C050C947706F5
:100100000C94000008950895AF92BF92CF92DF92B1
:10011000EF92FF920F931F93CF93DF936C017B01BC
:100120008B01040F151FEB015E01AE18BF08C0174D
:10013000D10759F06991D601ED91FC910190F081C0
:10014000E02DC6010995892B79F7C501DF91CF9183
:100150001F910F91FF90EF90DF90CF90BF90AF90E5
:10016000089590E0FC01E656FF4F2491FC01EA5708
:10017000FF4F3491FC01EE58FF4FE491EE23C9F09C
:10018000222339F0233001F1A8F4213019F1223073
:1001900029F1F0E0EE0FFF1FE859FF4FA591B49150
:1001A0008FB7F894EC91611126C030953E233C93B3
:1001B0008FBF08952730A9F02830C9F0243049F7BF
:1001C000809180008F7D03C0809180008F77809325
:1001D0008000DFCF84B58F7784BDDBCF84B58F7D82
:1001E000FBCF8091B0008F778093B000D2CF809109
:1001F000B0008F7DF9CF3E2BDACF3FB7F8948091D6
:100200001D0290911E02A0911F02B091200226B5FE
:10021000A89B05C02F3F19F00196A11DB11D3FBF3E
:10022000BA2FA92F982F8827BC01CD01620F711D0D
:10023000811D911D42E0660F771F881F991F4A9507
:10024000D1F708958F929F92AF92BF92CF92DF9293
:10025000EF92FF924B015C010E94FD006B017C015B
:100260000E94FD006C197D098E099F09683E73404C
:1002700081059105A8F321E0821A9108A108B1082F
:1002800088EEC80E83E0D81EE11CF11C8114910495
:10029000A104B10429F7FF90EF90DF90CF90BF90B9
:1002A000AF909F908F90089508952091A701260FF9
:1002B0003327331F21323105ECF42091F001FC018A
:1002C00090E080E0243069F082E00895A091A701D9
:1002D0002191AC0149575E4FA40FB52FB11D2C934E
:1002E0000196861798F38091A701680F6093A70184
:1002F00080E0089581E008951092F00181E08093FC
:10030000EF011092CA0161E082E10E94B10061E058
:1003100083E10E94B100E9EBF0E080818E7F808371
:1003200080818D7F808388E48093B80085E480930A
:10033000BC000895CF93DF9391E0909386018823CA
:10034000B9F0C091B800D091BA008091BC008A7B0E
:100350008093BC0060E082E10E94B10060E083E134
:100360000E94B1000E947C01D093BA00C093B800F3
:10037000DF91CF9108950895E0912802809127029E
:10038000E81730F4F0E0EA59FE4F808190E00895DC
:100390008FEF9FEF089590912802809127022FEF11
:1003A0003FEF981748F4E92FF0E0EA59FE4F20811B
:1003B00030E09F5F90932802C90108958091270241
:1003C00090912802891B990B0895CF92DF92EF92AA
:1003D000FF920F931F93CF93DF937C01CB018A0190
:1003E0002091F601222389F0EB016B01C40ED51E8A
:1003F000CC15DD0569F06991D701ED91FC91019073
:10040000F081E02DC7010995F3CF642F0E945501BB
:10041000C801DF91CF911F910F91FF90EF90DF9076
:10042000CF900895CF93DF931F92CDB7DEB7698346
:100430002091F6012223F9F020912502203258F074
:1004400021E030E0FC013383228390E080E00F90D4
:10045000DF91CF91089580912602E82FF0E0E950D6
:10046000FE4F998190838F5F8093260280932502AF
:1004700081E090E0ECCF61E0CE0101960E94550151
:10048000F7CFCF92DF92EF92FF920F931F93CF930C
:10049000DF93FC01C48121E02093F601C093170291
:1004A00010922602109225028385682B89E292E041
:1004B0000E941202D0912502D13208F092C00E940F
:1004C000FD006B017C018091F001811165C082E02B
:1004D0008093F00181E08093EF018FEF8093EE0134
:1004E0001092ED01D093EC01A7EFB1E0ECECF1E05C
:1004F00080E0D81385C01092CB018091CB01CC0F46
:10050000C82BC093CB018091CA01813009F07CC017
:100510001092CA010E94FD006B017C018091CB0109
:100520008093BB008091F2019091F301A091F401BE
:10053000B091F501892B8A2B8B2B99F00E94FD003D
:100540000091F2011091F3012091F4013091F50135
:100550006C197D098E099F090617170728073907A7
:10056000E0F18091BC0083FDD9CF85EC8093BC0085
:100570000E94FD006B017C018091F001823009F442
:1005800045C08091EE018F3F61F18091EE01803294
:1005900041F18091EE0125C08091F2019091F3012B
:1005A000A091F401B091F501892B8A2B8B2B09F4D2
:1005B0008ACF0E94FD000091F2011091F301209179
:1005C000F4013091F5016C197D098E099F09061718
:1005D00017072807390708F076CF8091F1010E94AC
:1005E0009A0110922602109225021092F601DF91D4
:1005F000CF911F910F91FF90EF90DF90CF900895D2
:100600009D9191938F5F75CF85EEB0CF8091F20170
:100610009091F301A091F401B091F501892B8A2BFF
:100620008B2B09F4A9CF0E94FD000091F2011091DB
:10063000F3012091F4013091F5016C197D098E09C7
:100640009F09061717072807390708F095CFC5CF68
:1006500090E080E00895FC0101900020E9F73197D7
:10066000AF01481B590BBC0185E392E00C94840058
:100670000F931F93CF938C01C62F0E9441026C2FC2
:100680006460C8010E9441026C2F6B7FC8010E9408
:10069000410283EC90E00197F1F7CF911F910F9108
:1006A00008950F931F93CF93DF938C01D62FC42F00
:1006B000607F642B0E94380380E1D89FB001112431
:1006C0006C2BC801DF91CF911F910F910C943803CF
:1006D00040E061E085E392E00E9451038BE39FE1FB
:1006E0000197F1F7089541E00E94510381E090E005
:1006F000089585ED8093BC008091F2019091F30103
:10070000A091F401B091F5010796A11DB11D23E060
:10071000B695A795979587952A95D1F72091BC0016
:1007200024FD03C01092F00108954091F201509110
:10073000F3016091F4017091F501452B462B472B95
:1007400069F30097A105B10541F025E32A95F1F77A
:1007500000000197A109B109E1CF8091F1010C944A
:100760009A011F920F920FB60F9211242F933F936D
:100770008F939F93AF93BF938091190290911A0228
:10078000A0911B02B0911C023091180223E0230FAC
:100790002D3758F50196A11DB11D209318028093A5
:1007A000190290931A02A0931B02B0931C0280912D
:1007B0001D0290911E02A0911F02B091200201968D
:1007C000A11DB11D80931D0290931E02A0931F02D4
:1007D000B0932002BF91AF919F918F913F912F9144
:1007E0000F900FBE0F901F90189526E8230F0296CA
:1007F000A11DB11DD2CF1F920F920FB60F921124DF
:100800002F933F934F935F936F937F938F939F9318
:10081000AF93BF93EF93FF938091B900887F8036A9
:1008200009F44AC0F0F5883209F4A7C018F5803100
:1008300009F49BC0B8F4882309F4F9C0883009F49E
:1008400094C0FF91EF91BF91AF919F918F917F9154
:100850006F915F914F913F912F910F900FBE0F902D
:100860001F901895883109F488C0803251F7809321
:10087000EE0114C0803409F49DC040F48033B9F314
:100880008833F9F68093EE0185ECB0C0803509F429
:1008900085C0883509F496C0883499F60E9479039A
:1008A000D0CF883909F48CC038F5883729F050F456
:1008B000883611F0803729F683E08093F00110929A
:1008C000C90157C0883809F47BC0803919F08038D5
:1008D00009F0B7CF8091C901803208F071C0E09172
:1008E000C90181E08E0F8093C9018091BB00F0E0C7
:1008F000E755FE4F80833DC0803B39F0E0F4803AFD
:1009000009F479C0883A09F09CCF84E08093F00123
:100910001092A8011092A701E0912302F091240205
:1009200009958091A70181110FC081E08093A701F3
:100930001092870109C0803C09F4A6CF883C09F4D5
:10094000A3CF883B09F07DCFE091A80181E08E0F15
:100950008093A801F0E0E957FE4F80818093BB00AF
:100960009091A8018091A70129C08091CB0180932B
:10097000BB0085EC8093BC0064CF9091ED01809129
:10098000EC01981758F5E091ED0181E08E0F80930E
:10099000ED01F0E0E453FE4F8081E9CFE091ED01FD
:1009A00081E08E0F8093ED018091BB00F0E0E45375
:1009B000FE4F80839091ED018091EC019817C8F271
:1009C00085E8D8CFE091ED0181E08E0F8093ED01B5
:1009D0008091BB00F0E0E453FE4F80838091EF01F3
:1009E00081115CCF81E08093CA0184EA8093BC00CE
:1009F0001092F00126CF85EC8093BC001092F0019C
:100A00008091C901803230F4E091C901F0E0E755EE
:100A1000FE4F10826091C90170E0E0912102F091D7
:100A2000220289EA91E009951092C9010ACF109239
:100A3000EE0134CFE9E2F2E01382128288EE93E015
:100A4000A0E0B0E084839583A683B7838CE091E037
:100A500091838083E5E3F2E0138212828EE191E0DC
:100A60009183808387E2848380E1808782E081872D
:100A7000128688E083870895CF93DF93CDB7DEB7E2
:100A800028970FB6F894DEBF0FBECDBF789484B51B
:100A9000826084BD84B5816084BD85B5826085BD7A
:100AA00085B5816085BD80916E00816080936E0008
:100AB00010928100809181008260809381008091FA
:100AC00081008160809381008091800081608093AB
:100AD00080008091B10084608093B1008091B0006B
:100AE00081608093B00080917A00846080937A0066
:100AF00080917A00826080937A0080917A00816090
:100B000080937A0080917A00806880937A001092B6
:100B1000C100109228021092270210922602109211
:100B200025020E947C0182E890E090932402809349
:100B3000230283E890E09093220280932102109296
:100B40003A0280913E02823018F098E090933A0287
:100B500090913F02992339F0813029F480913A0233
:100B6000846080933A0262E370E080E090E00E944B
:100B700022016091400285E392E00E94410268EE0A
:100B800073E080E090E00E94220160E385E392E060
:100B90000E9438030BE416E4C8010197F1F760E303
:100BA00085E392E00E943803C8010197F1F760E302
:100BB00085E392E00E94380383E592E00197F1F724
:100BC00060E285E392E00E94380360913A0260623D
:100BD00040E085E392E00E94510384E080933B0271
:100BE00040E06CE085E392E00E9451030E946803BC
:100BF00082E080933C0240E066E085E392E00E9460
:100C0000510340E062E085E392E00E9451038BE3F0
:100C10009FE10197F1F788E08093400260E085E36F
:100C200092E00E94410200E010E00E94680386E228
:100C300091E00E942B0368EE73E080E090E00E9458
:100C400022010E94680383E391E00E942B0388E065
:100C5000E0E0F1E0DE01119601900D928A95E1F756
:100C600080913E02EFEF8111E1E0F0E0EE0FFF1F17
:100C700081E090E08C0F9D1FE80FF91F60816D5F90
:100C8000606840E085E392E00E94510382E491E0D5
:100C90000E942B0368EE73E080E090E00E94220146
:100CA0000E9468038BE491E00E942B0368EE73E0DE
:100CB00080E090E00E9422010E9468038DE591E0AF
:100CC0000E942B0368EE73E080E090E00E94220116
:100CD0000E9468030115110509F4A7CF0E940000C6
:100CE000A4CFEE0FFF1F0590F491E02D0994F89426
:100CF000FFCF00004000140054000000000012026A
:100D0000E5012803BB01DE01CB01BC0100000000AE
:100D1000730384002803540148656C6C6F20576F7F
:100D2000726C64210049276D20706F77657265646D
:100D30002062790041726475696E6F2100506C65A4
:100D40006173652073756273637269626521004720
:080D50006F6F646279652100F8
:107E0000112484B714BE81FFF0D085E080938100F7
:107E100082E08093C00088E18093C10086E0809377
:107E2000C20080E18093C4008EE0C9D0259A86E02C
:107E300020E33CEF91E0309385002093840096BBD3
:107E4000B09BFECF1D9AA8958150A9F7CC24DD24C4
:107E500088248394B5E0AB2EA1E19A2EF3E0BF2EE7
:107E6000A2D0813461F49FD0082FAFD0023811F036
:107E7000013811F484E001C083E08DD089C08234E0
:107E800011F484E103C0853419F485E0A6D080C0E4
:107E9000853579F488D0E82EFF2485D0082F10E0AE
:107EA000102F00270E291F29000F111F8ED06801E7
:107EB0006FC0863521F484E090D080E0DECF843638
:107EC00009F040C070D06FD0082F6DD080E0C81688
:107ED00080E7D80618F4F601B7BEE895C0E0D1E017
:107EE00062D089930C17E1F7F0E0CF16F0E7DF06D8
:107EF00018F0F601B7BEE89568D007B600FCFDCFD4
:107F0000A601A0E0B1E02C9130E011968C91119780
:107F100090E0982F8827822B932B1296FA010C0160
:107F200087BEE89511244E5F5F4FF1E0A038BF0790
:107F300051F7F601A7BEE89507B600FCFDCF97BE46
:107F4000E89526C08437B1F42ED02DD0F82E2BD052
:107F50003CD0F601EF2C8F010F5F1F4F84911BD097
:107F6000EA94F801C1F70894C11CD11CFA94CF0C13
:107F7000D11C0EC0853739F428D08EE10CD085E9AC
:107F80000AD08FE07ACF813511F488E018D01DD067
:107F900080E101D065CF982F8091C00085FFFCCF94
:107FA0009093C60008958091C00087FFFCCF809118
:107FB000C00084FD01C0A8958091C6000895E0E648
:107FC000F0E098E1908380830895EDDF803219F02E
:107FD00088E0F5DFFFCF84E1DECF1F93182FE3DFCA
:107FE0001150E9F7F2DF1F91089580E0E8DFEE27F6
:047FF000FF270994CA
:027FFE00040479
:00000001FF
