:020000040000FA
:100000000C9470000C9498000C9498000C94980038
:100010000C9498000C9498000C9498000C94980000
:100020000C9498000C9498000C9498000C949800F0
:100030000C9498000C9498000C9498000C949800E0
:100040000C94DD0F0C9498000C94AB0F0C94850F5E
:100050000C9498000C9498000C9498000C949800C0
:100060000C9498000C949800000000080002010015
:10007000000304070000000000000000FF02000071
:10008000001E00080D0002004419160B021A1F1F63
:100090004F4E004F464600010010190C0C021F582D
:1000A0000000000000250028002B000000000024B4
:1000B0000027002A000404040404040404020202C9
:1000C0000202020303030303030102040810204099
:1000D00080010204081020010204081020004D12C3
:1000E00011241FBECFEFD8E0DEBFCDBF12E0A0E0ED
:1000F000B1E0E6E7F7E202C005900D92AE3DB10730
:10010000D9F723E0AEEDB2E001C01D92AD38B207E1
:10011000E1F710E0C0E7D0E004C02197FE010E94A3
:100120008E12CF36D107C9F70E9427100C94B9134D
:100130000C94000090E0FC01E753FF4F24918B5496
:100140009F4FFC018491882399F090E0880F991FBC
:10015000FC01E555FF4FA591B491FC01EF55FF4F10
:10016000859194918FB7F894EC91E22BEC938FBF2B
:100170000895AF92BF92CF92DF92EF92FF920F93CA
:100180001F93CF93DF936C017B018B01040F151F2D
:10019000EB015E01AE18BF08C017D10759F0699195
:1001A000D601ED91FC910190F081E02DC6010995F9
:1001B000892B79F7C501DF91CF911F910F91FF90A6
:1001C000EF90DF90CF90BF90AF900895FC01538DDA
:1001D000448D252F30E0842F90E0821B930B541721
:1001E00010F0CF96089501970895FC01918D828DAE
:1001F000981761F0A28DAE0FBF2FB11D5D968C9147
:10020000928D9F5F9F73928F90E008958FEF9FEF85
:100210000895FC01918D828D981731F0828DE80F41
:10022000F11D858D90E008958FEF9FEF0895FC01FB
:10023000918D228D892F90E0805C9F4F821B9109C8
:100240008F739927089587EE92E00E94170121E0AD
:10025000892B09F420E0822F089580E090E0892B1B
:1002600029F00E94230181110C9400000895FC01E3
:10027000A48DA80FB92FB11DA35ABF4F2C91848D07
:1002800090E001968F739927848FA689B7892C9364
:10029000A089B1898C91837080648C93938D848DB7
:1002A000981306C00288F389E02D80818F7D8083BA
:1002B0000895EF92FF920F931F93CF93DF93EC017A
:1002C00081E0888F9B8D8C8D98131AC0E889F989FD
:1002D000808185FF15C09FB7F894EE89FF89608300
:1002E000E889F98980818370806480839FBF81E081
:1002F00090E0DF91CF911F910F91FF90EF900895C3
:10030000F62E0B8D10E00F5F1F4F0F731127E02E9D
:100310008C8D8E110CC00FB607FCFACFE889F989D5
:10032000808185FFF5CFCE010E943701F1CFEB8DA3
:10033000EC0FFD2FF11DE35AFF4FF0829FB7F894A9
:100340000B8FEA89FB8980818062CFCFCF93DF93C7
:10035000EC01888D8823B9F0AA89BB89E889F989DD
:100360008C9185FD03C0808186FD0DC00FB607FC12
:10037000F7CF8C9185FFF2CF808185FFEDCFCE0145
:100380000E943701E9CFDF91CF91089590E0FC0101
:10039000E859FF4F2491FC01E753FF4F3491FC01D2
:1003A000EB54FF4FE491EE23C9F0222339F02330C0
:1003B00001F1A8F4213019F1223029F1F0E0EE0F1B
:1003C000FF1FEF55FF4FA591B4918FB7F894EC91B3
:1003D000611126C030953E233C938FBF089527308E
:1003E000A9F02830C9F0243049F7809180008F7D32
:1003F00003C0809180008F7780938000DFCF84B529
:100400008F7784BDDBCF84B58F7DFBCF8091B0002B
:100410008F778093B000D2CF8091B0008F7DF9CFDD
:100420003E2BDACF2FB7F8946091E3027091E4028B
:100430008091E5029091E6022FBF0895FC01808132
:10044000918186279183808328E040815181CA0170
:100450009695879540FF04C031E0832730EA9327C3
:1004600091838083215089F70895FC01EF59FF4F54
:1004700081E0208131812630310509F080E0089546
:10048000FC0181850895DC011496ED91FC91EE5AF2
:10049000FF4F808187FD0BC0DB0118968C93189766
:1004A00081E019968C938FEF808381E0089580E03E
:1004B000089570E0FC01E60FF71F43A9660F771F50
:1004C000680F791FDB019D96ED91FC9190E080E033
:1004D0006AE0415068F05191689F9001699F300D2A
:1004E0001124C901C097850F911D57FD9A95F1CF31
:1004F00008950F931F93CF93DF939C01FC013C96CB
:10050000EB0190E061E089914081882309F44BC0C0
:10051000411106C081E0DF91CF911F910F910895A5
:100520008A32C1F08F010F5F1F4F8F33B9F5492F0A
:1005300050E0DA01AA0FBB1FA20FB31F9E96FC93D7
:10054000EE939D97420F531FDA01D3966C93F801F7
:100550009F5FD9CF092F10E0A801440F551F420F0C
:10056000531FDA019E96FC93EE939D97D801A20F3C
:10057000B31FD3961C92D397AF018D010D5C1F4F13
:10058000FA01DA018D91AD017881871709F388238B
:1005900009F2F80180818F5F8083F2CFF801841720
:1005A00009F4B1CFB7CF81E04111B5CF80E0B3CF2F
:1005B000CF93DF93EC01FC01ED5AFF4F8AE080837B
:1005C0000E9412026EAB7FAB88AF99AFDF91CF91E3
:1005D0000895FC01EF59FF4F118210820C94D8024C
:1005E000CF93DF93EC0160E00E945902FE01EE5AC6
:1005F000FF4F2081022E000C330B8217130629F4C3
:100600008FEF8083DF91CF910895EA85FB85309746
:10061000C9F39085981303C09185911111860284C6
:10062000F385E02DF4CF0F931F93CF93DF938C01CD
:10063000EB016991662361F0D80116968D919C912A
:10064000DC01ED91FC910480F581E02D0995F1CF5D
:10065000DF91CF911F910F9108950F931F93CF9327
:10066000DF93EC018A0161157105A9F0CE010E94AA
:100670001303D801ED91FC911197CF0102968D9350
:100680009C93608171816115710581F766EC71E061
:10069000CE010E9413030E941202FE01FE966083A7
:1006A000718382839383349680819181A281B38107
:1006B000892B8A2B8B2B41F488EE93E0A0E0B0E0ED
:1006C00080839183A283B383C75BDF4F1882DF915E
:1006D000CF911F910F9108950F931F93CF93DF93A5
:1006E000EC01162F042F4A3051F1FC01E75BFF4F5C
:1006F00040833797108211821282138234961082BF
:100700006E3F89F5413051F53D961082E881F981BF
:100710000484F585E02DCE01DF91CF911F910F91DB
:100720000994013031F4FE01EC5AFF4F8081882397
:10073000A9F0E881F9810284F385E02DECCF6E3FCA
:1007400069F06D3F91F469EC71E0CE010E9479028D
:10075000811104C0CC5ADF4F81E08883DF91CF91B3
:100760001F910F9108956D3FE1F2E881F9810088B2
:10077000F189E02D402F612FCE010995C95BDF4F34
:10078000E881F981309751F3602F812FDF91CF916C
:100790001F910F910994EF92FF920F931F93CF93A4
:1007A000DF93EC018C01025B1F4FD8018D919C916E
:1007B00011970097E1F001978D939C93C05BDF4FF9
:1007C000E881F981309709F419C1828193810097FA
:1007D00009F414C1DC01ED91FC910190F081E02D50
:1007E000DF91CF911F910F91FF90EF9009946A30A4
:1007F00009F404C16D3009F0B9C00E9412026EAB59
:100800007FAB88AF99AF8CA5FE01E80FF11D148670
:10081000882309F4F3C01CA66CEC71E0CE010E94A1
:100820007902811124C060E0CE010E945902FE01CC
:10083000E55AFF4F9081981709F4E0C039978083FB
:10084000E885F985309709F4D9C0828193810097B2
:1008500009F4D4C0DC01ED91FC910190F081E02D10
:10086000DF91CF911F910F91FF90EF90099466ED6A
:1008700071E0CE010E947902811109C0CE01DF91A1
:10088000CF911F910F91FF90EF900C94F0026FEDBC
:1008900071E0CE010E947902882381F36EEE71E04F
:1008A000CE010E947902811111C0FE01EA5BFF4F67
:1008B0006081662321F042E0CE010E946C03E88152
:1008C000F9810084F185E02DCE01CACFE881F9815C
:1008D0000684F785E02DCE01099581118FC08E0128
:1008E0000A5B1F4FF8018081882309F487C069EFF4
:1008F00071E0CE010E94790241E0882361F164EF4A
:1009000071E0CE010E94790248E0882301F16CEF8A
:1009100071E0CE010E94790243E08823E1F06EE0AD
:1009200072E0CE010E94790244E0882381F062E007
:1009300072E0CE010E94790245E0882361F069E00F
:1009400072E0CE010E947902811104C049E0F801F1
:10095000608103C04AE0D8016C91CE01DF91CF9154
:100960001F910F91FF90EF900C946C038FE9860F0D
:100970008A3108F46052ECA5EF3138F481E08E0F33
:100980008CA7EC0FFD2FF11D64876A33F1F50E94EF
:1009900012026EAB7FAB88AF99AFECA5EC0FFD2FC9
:1009A000F11D14861CA663E172E0CE010E9479025B
:1009B000811124C060E0CE010E9459027C01FE0139
:1009C000E45BFF4F9183808361E0CE010E94590276
:1009D000F80191838083EA85FB85309759F0808503
:1009E0008E151F0419F48185811104C00284F385DA
:1009F000E02DF3CFC05BDF4FF983E883DF91CF9128
:100A00001F910F91FF90EF9008956E3349F48CA5DC
:100A10008130A1F71CA6FE01EA5BFF4F47E098CFAB
:100A2000603261F78CA5813049F71CA6E7CF0497A7
:100A30000C94CB03089580E008950895CF93DF933D
:100A40009B01FB01359640E0CAE0D0E0009769F4D5
:100A50003196D901842F90E0AD01421B530B48170A
:100A6000590760F441914D93F7CF3197BE010E9431
:100A70007A12805D8183CB014F5FE8CF820F931F95
:100A8000FC011082DF91CF910895DC0114968D91C5
:100A90009C91DC01ED91FC910190F081E02D099495
:100AA000CF93DF93EC018C819D81DC01ED91FC9172
:100AB0000084F185E02D0995892BB9F08C819D8109
:100AC000DC01ED91FC910284F385E02D0995AA816A
:100AD000BB81109741F3ED91FC9111970190F0814A
:100AE000E02D682FCD010995DECFDF91CF910895DC
:100AF000CF93DF93DB0118968D919C91009789F03D
:100B0000EB01DC01ED91FC910084F185E02D09956C
:100B1000E881F9810480F581E02DCE01DF91CF914C
:100B20000994DF91CF9108950F931F93CF93DF9393
:100B3000FB01A085B185109791F18B01EC01ED913E
:100B4000FC9111970284F385E02DCD01099588234E
:100B5000D1F08A898823B9F08C819D81DC01ED91E7
:100B6000FC910280F381E02D0995882361F0D80182
:100B7000ED91FC910190F081E02DC801DF91CF91C2
:100B80001F910F910994E881F9810680F781E02D8A
:100B9000B801CE01DF91CF911F910F910994DF91A0
:100BA000CF911F910F910895CF93DF93DC011C9695
:100BB0002D913C91232B29F1EC018C819D81DC014D
:100BC000ED91FC910280F381E02D09959A898823AB
:100BD000D9F0992349F0E881F9810084F185E02D6D
:100BE000CE01DF91CF9109948C859D85DC01ED913B
:100BF000FC910190F081E02D0995882311F081E0AE
:100C00008A8BDF91CF9108959923D9F38C859D85A7
:100C1000DC01ED91FC910280F381E02D09951A8AA7
:100C2000F0CFFC01738762870895CF93DF93FC01B7
:100C30008189811116C08481958142855385EC019B
:100C4000AB81BC8189859A858A0F9B1FA817B9073C
:100C500041F0EA013991AE012D913217B9F381E0EB
:100C6000818BDF91CF910895CF93DF93FC01118A9F
:100C7000C481D581AB81BC810284F385E02D898557
:100C80009A858E0F9F1FE817F90719F02D91219370
:100C9000FACFDF91CF910895AF92BF92CF92DF92BA
:100CA000EF92FF920F931F93CF93DF9300D000D06A
:100CB000CDB7DEB7FC01A085B185109709F499C0C6
:100CC0008B017C01FB018081882359F1D701529669
:100CD0009C91992309F48DC0803809F49CC0803C14
:100CE00009F4D5C0803409F07DC0C7010E943406E4
:100CF000D70118968D919C9119971496ED91FC91BE
:100D00002185328547815085240F351F43815481C9
:100D1000DC01ED91FC910680F781E02D00E060E4BC
:100D20003CC0F701A480B580F50185819681FC0166
:100D30002081FB0143815481452B89F5222309F44D
:100D40003EC0F501C180D2808081853008F460C04A
:100D500083E090E09C012F5F3F4F8E010F5F1F4F9C
:100D600070E060E0A801F601E60FF71FB490F8010B
:100D7000B1928F016F5F7F4F68177907A1F7640FFA
:100D8000751F80EFFB018083ED91FC911197068028
:100D9000F781E02D00E060E0CD01099523C041819D
:100DA000528121E0FC013191CF01FA016191AF0143
:100DB000631320E03111F6CF222309F4C2CFF501ED
:100DC0002385348541815281ED91FC9111970680F4
:100DD000F781E02D01E060E0CD01099581E0D701C8
:100DE00052968C930E941202F7016487758786875A
:100DF00097870F900F900F900F90DF91CF911F91D9
:100E00000F91FF90EF90DF90CF90BF90AF9008953B
:100E100082E090E09FCFC7010E941506F801838110
:100E20009481D7011496ED91FC9115972185328517
:100E300082179307E1F451962C91211118C0D80123
:100E400011964D915C910380F481E02DD7011A96A3
:100E50006D917C918E0F9F1FE817F90741F0DA0121
:100E60002D91AD012193DB012D93BD01F5CFF7014C
:100E700080859185DC01ED91FC910680F781E02D64
:100E800000E030E020E050E040E060E886CFC701BD
:100E90000E941506F701818960EC811161ECD70190
:100EA00018968D919C9119971496ED91FC9127813C
:100EB0003085438154810184F285E02D4E0F5F1F00
:100EC000DC01ED91FC910680F781E02D00E065CF1B
:100ED000CF93DF93DC0118966D917C9161157105BC
:100EE00069F0EC018E819F81DC01ED91FC9106801F
:100EF000F781E02D0995198618861A8ADF91CF911E
:100F00000895CF93DF93FC0180899189009711F4B4
:100F10006535F1F5268537858217930758F1838962
:100F2000811136C04485558581E090E08217930792
:100F300040F4DA01A80FB91F7C91753511F00196C4
:100F4000F5CF281B390B318B208B9C01D901A81BB5
:100F5000B90B44855585C685D7852C173D0750F4B8
:100F6000EA01C20FD31F7881A40FB51F7C932F5FB6
:100F70003F4FECCFA485B585808991899C012F5F77
:100F80003F4F318B208BA80FB91F6C9381E0828B70
:100F9000DF91CF91089504970C9481071F93CF930D
:100FA000DF93EC01162F88859985DC01ED91FC918A
:100FB0000480F581E02D0995612FCE010A96DF911D
:100FC000CF911F910C941E028F929F92BF92CF924D
:100FD000DF92EF92FF920F931F93CF93DF93FC0169
:100FE000A085B185109709F45AC06901152FB42E58
:100FF000F62EEC018FEF9FEF938782874901F6E091
:101000008F0E911CED91FC9111970280F381E02DE0
:10101000B401CD01099565E5CE010E94CE07682D8A
:10102000CE010E94CE07692DCE010E94CE076F2D02
:10103000CE010E94CE07EB2CF12ECE0CDF1CCE147D
:10104000DF0471F0002349F0F7016491CE010E94A2
:10105000CE07BFEFEB1AFB0AF2CFD7016C91F6CFA8
:1010600088859985DC01ED91FC910480F581E02D66
:101070006A850995888599856B85DC01ED91FC91E0
:101080000480F581E02DDF91CF911F910F91FF90AA
:10109000EF90DF90CF90BF909F908F900994DF9159
:1010A000CF911F910F91FF90EF90DF90CF90BF9065
:1010B0009F908F9008953F924F925F926F927F9290
:1010C0008F929F92AF92BF92CF92DF92EF92FF9258
:1010D0000F931F93CF93DF9300D000D000D01F92C7
:1010E000CDB7DEB7FC01A085B185109709F4A4C087
:1010F0008C01ED91FC9111970190F081E02DCD01D3
:101100000995D80152968C915297882309F494C07E
:1011100052961C92F12CE12C44244A94542C3324F2
:101120003394F8018089918997012A5F3F4F821794
:10113000930708F481C0248535854701FFEF8F1A96
:101140009F0AF901EE0DFF1D4081453509F072C07F
:10115000C280280D391DD9012C91DC2CC22E8E198C
:101160009F098C159D0508F465C0B6E0CB16D10427
:1011700008F460C05F824E82570137016C0C7D1C01
:10118000A614B70478F4D8011C96ED91FC91EA0DF1
:10119000FB1D6081CE0106960E941E02BFEFAB1AB6
:1011A000BB0AEECF8E819F81892B09F043C0F801E5
:1011B00084859585FC01EE0DFF1D23812983F4E0D4
:1011C000EF0EF11CE80EF91EFB82EA8226E0C21A3D
:1011D000D108DD82CC82D80153963C925397129667
:1011E0008D919C91009751F0DC01ED91FC91019063
:1011F000F081E02DBE016F5F7F4F099590E080E0A8
:10120000A301480F591FF80120893189421753075C
:1012100060F424853585420F531FDA014C91280F65
:10122000391FF90140830196EBCF918B808B138A94
:10123000912C812C740175CF27960FB6F894DEBFE0
:101240000FBECDBFDF91CF911F910F91FF90EF9017
:10125000DF90CF90BF90AF909F908F907F906F90D6
:101260005F904F903F90089521E0FC01808591852B
:10127000892B09F420E0822F0895FC011382128249
:1012800011861086089590E080E0089590E080E057
:10129000089581E0089580E0089508950F931F93C5
:1012A000CF93DF93FC0120853185232BB1F48B0193
:1012B000EC0188E090E00E94941224E231E0FC010D
:1012C00031832083D583C4831783068399878887D6
:1012D000DF91CF911F910F91089590E080E0F8CFBA
:1012E000CF93DF93EC018CE090E00E949412FC011C
:1012F000138212828EE291E091838083D783C6832A
:1013000011868A859B8593878287FB87EA87CF0131
:10131000DF91CF910895CF92DF92EF92FF920F93DA
:101320001F93CF93DF938C01DC011E96ED90FC9010
:10133000E114F10409F480C0D701ED91FC9102841D
:10134000F385E02DC7010995882309F48AC0F701C8
:10135000E480F580EDCF843008F05EC0F801C089EC
:10136000D189209709F4A0C0E881F9810280F38136
:10137000E02DCE010995882309F4BAC00E80DF81E3
:10138000C02DEFCFD70117961C930E931697199681
:10139000DC93CE931897FB82EA8281E050968C937F
:1013A0000E941202F7016487758786879787128AE1
:1013B000DF91CF911F910F91FF90EF90DF90CF9031
:1013C000089583E190E00E9494127C018EE191E007
:1013D000D70111969C938E931596DC92CE9214971A
:1013E00019961C921E921897F601818592850E948B
:1013F0009412D7011B969C938E931A97C7010E9453
:101400003406F60181899289D70113969C938E93B5
:101410001297F28AE18AB7CFD701ED91FC9100844F
:10142000F185E02DC701DF91CF911F910F91FF90C2
:10143000EF90DF90CF900994F80184819581DC01D1
:10144000ED91FC910680F781E02D09957C01F80172
:1014500086859785D70115969C938E931497F7866A
:10146000E686D8011C968D919C91DC01ED91FC9152
:101470000480F581E02DB7010995882309F498CF00
:10148000D8011A96ED91FC910188F289E02D80E057
:10149000309709F460CF20853185232B09F08F5FC9
:1014A0000280F381E02DF4CF84E190E00E94941259
:1014B000EC01D8011A96ED91FC911B821A828AE008
:1014C00091E09983888388E191E09D838C831986DC
:1014D0001886878590899F878E870E9494129D87A2
:1014E0008C87F801808991899F838E83D18BC08BF3
:1014F000F986E886CE010496D70113969C938E93C5
:101500001297198A188A1A8A1B8AF801C284D3840E
:10151000D6015196ED90FC90E114F10409F451CFFD
:10152000F70180859185892B09F42CCFE280F38027
:10153000F3CF06970C948B096F927F928F929F92B4
:10154000AF92BF92CF92DF92EF92FF920F931F93D1
:10155000CF93DF9300D0CDB7DEB70B891C8968012C
:1015600086E4C80ED11CD6018C9181114EC0F801C1
:10157000E25BFF4F80819181892B09F046C07801A1
:10158000BAE4EB0EF11CF701808181113EC0CE015F
:1015900047969A838983AE014F5F5F4F6D897E893D
:1015A000C8010E942D038FEFD6018C9381E0F701D3
:1015B00080835801F9E4AF0EB11C38018EE3680E48
:1015C000711C4801A2E48A0E911CF50180818111F1
:1015D00040C00E941202D3012D913D914D915C912A
:1015E000621B730B840B950BF401208131814281C6
:1015F0005381261737074807590700F542E0D601FF
:101600006C91C8010E946C03E0CFF801EE5BFF4FC4
:10161000108211821282138285E00F900F90DF9169
:10162000CF911F910F91FF90EF90DF90CF90BF90DF
:10163000AF909F908F907F906F900895F801868172
:101640009781DC01ED91FC910190F081E02D0995ED
:10165000BCCFF7011082D5018C91DFCFCF92DF9202
:10166000EF92FF920F931F93CF93DF93CDB7DEB727
:1016700028970FB6F894DEBF0FBECDBF8C016B016B
:101680007C0127E5E20EF11CF7015183408332977C
:10169000808191818417950718F4F70191838083E5
:1016A000F70180819181F801E75AFF4F481B590BE0
:1016B00051834083BE016D5F7F4F0E941E05F6017E
:1016C0008085805D89838CE28A831F921F92CE0180
:1016D00001969F938F938DE192E09F938F931F9339
:1016E0000F930E949C0A0FB6F894DEBF0FBECDBFC9
:1016F000813071F41F921F921F921F921F930F93BC
:101700000E949C0A0F900F900F900F900F900F90D7
:10171000873019F0F7011182108228960FB6F894DD
:10172000DEBF0FBECDBFDF91CF911F910F91FF9014
:10173000EF90DF90CF900895FC01AB0186819781F7
:10174000009731F02185222319F0BF010C942E0B54
:101750000895EF92FF920F931F93CF93DF9300D0E2
:10176000CDB7DEB78C017C0121E6E20EF11C83E0EF
:1017700090E0F701918380831F921F9289E292E0AB
:101780009F938F931F930F930E949C0A0F900F902B
:101790000F900F900F900F90813009F08EC01F9224
:1017A0001F928EE292E09F938F931F930F930E945C
:1017B0009C0A0F900F900F900F900F900F90813018
:1017C00009F07BC01F921F928AE392E09F938F9350
:1017D0001F930F930E949C0A0F900F900F900F90F1
:1017E0000F900F90813009F068C01A821982F801B9
:1017F000E15AFF4F0190F081E02D8081811170C08E
:1018000080E3898348E853E160E070E0D801AE5B93
:10181000BF4F4D935D936D937C9313971F921F92CF
:10182000CE0101969F938F9388E492E09F938F93CC
:10183000FF93EF938EE892E09F938F93F801E35A22
:10184000FF4F81818F9380818F938EE492E09F93ED
:101850008F931F930F930E949C0A0FB6F894DEBFDC
:101860000FBECDBF813049F51F921F9289E592E0EE
:101870009F938F931F930F930E949C0A0F900F903A
:101880000F900F900F900F908130B9F41F921F921C
:1018900086E692E09F938F931F930F930E949C0A7A
:1018A0000F900F900F900F900F900F90813029F4B0
:1018B00086E090E0F70191838083F7018081918138
:1018C000069729F011821082C8010E94D8020F9059
:1018D0000F90DF91CF911F910F91FF90EF9008959E
:1018E00084E38FCFCF93DF93EC01FC01EF59FF4FDF
:1018F000808191810197029748F4E881F981008401
:10190000F185E02DCE01DF91CF91099481E090E047
:10191000918380830E941202FE01ED59FF4F608384
:101920007183828393831F921F9282E792E09F9339
:101930008F93DF93CF930E949C0A0F900F900F908C
:101940000F900F900F90DF91CF910895EF92FF923B
:101950000F931F93CF93DF93DC011696CD91DC910B
:10196000209709F44CC07E01B7E5EB0EF11CF7019E
:1019700020813181232B09F442C08C018E819F810B
:10198000DC01ED91FC910480F581E02D0995F701D2
:1019900080819181019791838083892B81F588E8EB
:1019A00093E1A0E0B0E0759780839183A283B38335
:1019B0001F921F921F921F92DF93CF930E949C0A47
:1019C0000F900F900F900F900F900F908830B9F4F8
:1019D000FE01E75AFF4F408151814115510579F0D1
:1019E000D80119968C91882351F0B801CE01DF916E
:1019F000CF911F910F91FF90EF900C942E0BDF91E0
:101A0000CF911F910F91FF90EF900895CF93DF93A7
:101A100000D0CDB7DEB7FC01268137812115310515
:101A2000D9F041854423C1F011868085805D89838A
:101A30001A821F921F92CE0101969F938F9389E77E
:101A400092E09F938F933F932F930E949C0A0FB62F
:101A5000F894DEBF0FBECDBF0F900F90DF91CF91F6
:101A600008956F927F928F929F92AF92BF92CF9282
:101A7000DF92EF92FF920F931F93CF93DF93CDB737
:101A8000DEB728970FB6F894DEBF0FBECDBFDC01DE
:101A900016960D911C910115110511F480E088C076
:101AA0005A01872E962E7C01FC0181858823C1F086
:101AB00011868085805D89831A821F921F92CE01D4
:101AC00001969F938F9389E792E09F938F931F9343
:101AD0000F930E949C0A0FB6F894DEBF0FBECDBFD5
:101AE00068013BE5C30ED11C8FEFD6018C93F80142
:101AF0002285338583E090E0F901309709F46DC0C9
:101B00004185442331F0D70118964C9148171906A6
:101B100021F00284F385E02DF0CF019768F7F601FC
:101B200080818F3F09F4BACF9E012F5F3F4F39016B
:101B3000B901C5010E941E05D6018C91805D8F837D
:101B40001886F801EE5BFF4F80E29EE4A0E0B0E073
:101B500080839183A283B3831F921F927F926F929F
:101B600086E892E09F938F938F929F9289E892E00C
:101B70009F938F93CE0107969F938F9382E992E074
:101B80009F938F931F930F930E949C0AF60190815D
:101B90002FEF20830FB6F894DEBF0FBECDBF81308C
:101BA00009F07CCFD70118969C93189719968C93BF
:101BB00028960FB6F894DEBF0FBECDBFDF91CF9150
:101BC0001F910F91FF90EF90DF90CF90BF90AF905B
:101BD0009F908F907F906F900895F60180839FCFA4
:101BE0001F921F922FE932E03F932F93FC01258132
:101BF0002F9384818F930E949C0A0F900F900F90D7
:101C00000F900F900F900895EF92FF920F931F93F4
:101C1000CF93DF9300D000D000D0CDB7DEB78C01DA
:101C20009E012F5F3F4F7901B901FC0186819781A9
:101C30000E941E051F921F92FF92EF928EEA92E081
:101C40009F938F93F80185818F9384818F930E9456
:101C50009C0A0FB6F894DEBF0FBECDBF8130B1F441
:101C60001F921F928EEB92E09F938F93F8018581D4
:101C70008F9384818F930E949C0A91E00F900F9024
:101C80000F900F900F900F90813009F090E0892F06
:101C900026960FB6F894DEBF0FBECDBFDF91CF9171
:101CA0001F910F91FF90EF9008950F931F93CF9383
:101CB000DF9300D0CDB7DEB789859A858C010A5BAA
:101CC0001F4FF8012081211120C0389620813181D9
:101CD000232BD9F434972081211117C09E01225F54
:101CE0003F4F3A832983AE014F5F5F4F6C857D85FF
:101CF0000E942D038B85F801808381E00F900F9067
:101D0000DF91CF911F910F9108958E5B9F4FFC0142
:101D1000108211821282138280E0F0CFCF92DF9284
:101D2000EF92FF920F931F93CF93DF93EC018E817D
:101D30009F81DC01ED91FC910190F081E02D0995EE
:101D4000FE01E25BFF4F80819181892B09F061C028
:101D50008E010A5B1F4FF8018081882329F10E94C0
:101D60001202FE01FE96C080D180E280F3806C19E1
:101D70007D098E099F093496C080D180E280F3806E
:101D8000C616D706E806F90608F043C042E0D801B7
:101D90006C91CE01DF91CF911F910F91FF90EF9049
:101DA000DF90CF900C946C038E010D5A1F4FF801F9
:101DB00080818823D9F10E941202CEA8DFA8E8AC66
:101DC000F9AC6C197D098E099F09693E7340810544
:101DD0009105F8F0D8018C91815021F18C930E94EB
:101DE00012026EAB7FAB88AF99AF1F921F9289EC46
:101DF00091E09F938F938EEF8F93DF93CF930E9409
:101E0000550E8DB79EB707960FB6F8949EBF0FBEBE
:101E10008DBFDF91CF911F910F91FF90EF90DF90D9
:101E2000CF9008958AE0F8018083D9CF0E941202F2
:101E30000EA91FA928AD39AD601B710B820B930B46
:101E4000613375478105910520F3FE01EC5AFF4F80
:101E500010821F921F9289EC91E09F938F938DEFD8
:101E60008F93DF93CF930E94550E2DB73EB7295F16
:101E70003F4F0FB6F8943EBF0FBE2DBF882349F2E7
:101E80000E9412026EAB7FAB88AF99AFC2CFCF92E8
:101E9000DF92EF92FF920F931F93CF93DF93EC01AA
:101EA0000E948E0E8E010F591F4FF8018081918183
:101EB000019711F50E941202FE01ED59FF4FC080FB
:101EC000D180E280F3806C197D098E099F09693801
:101ED00073418105910580F082E090E0F8019183E3
:101EE0008083CE01DF91CF911F910F91FF90EF90F2
:101EF000DF90CF900C94D802DF91CF911F910F917A
:101F0000FF90EF90DF90CF9008951F920F920FB641
:101F10000F9211242F933F934F935F936F937F936F
:101F20008F939F93AF93BF93EF93FF9387EE92E0CE
:101F30000E943701FF91EF91BF91AF919F918F91D7
:101F40007F916F915F914F913F912F910F900FBEB5
:101F50000F901F9018951F920F920FB60F92112499
:101F60002F938F939F93EF93FF93E091F702F0915C
:101F7000F8028081E091FD02F091FE0282FD1BC01B
:101F80009081809100038F5F8F73209101038217EE
:101F900041F0E0910003F0E0E951FD4F958F80930F
:101FA0000003FF91EF919F918F912F910F900FBEA2
:101FB0000F901F9018958081F4CF1F920F920FB64B
:101FC0000F9211242F933F938F939F93AF93BF93BF
:101FD0008091E3029091E402A091E502B091E602C3
:101FE0003091E20223E0230F2D3758F50196A11D11
:101FF000B11D2093E2028093E3029093E402A09348
:10200000E502B093E6028091DE029091DF02A0919A
:10201000E002B091E1020196A11DB11D8093DE02A4
:102020009093DF02A093E002B093E102BF91AF91E1
:102030009F918F913F912F910F900FBE0F901F9006
:10204000189526E8230F0296A11DB11DD2CF7894D2
:1020500084B5826084BD84B5816084BD85B58260AD
:1020600085BD85B5816085BD80916E00816080935E
:102070006E001092810080918100826080938100C7
:1020800080918100816080938100809180008160D7
:10209000809380008091B10084608093B100809132
:1020A000B00081608093B00080917A00846080935A
:1020B0007A0080917A00826080937A0080917A0021
:1020C000816080937A0080917A00806880937A00A2
:1020D0001092C10086E090E00E9494128C01DC0115
:1020E00013961C921E92129782E591E011969C9392
:1020F0008E9387EE92E015969C938E931497E091C1
:10210000F702F091F80282E08083E091F302F0910F
:10211000F4021082E091F502F091F60280E18083F2
:102120001092FF02E091FB02F091FC0286E08083B6
:10213000E091F902F091FA02808180618083E09160
:10214000F902F091FA02808188608083E091F902BF
:10215000F091FA02808180688083E091F902F09129
:10216000FA0280818F7D808387E690E00E9494123E
:10217000EC018CE591E09983888384E791E09D836D
:102180008C831F830E83CE010496F8019383828390
:10219000FE01EB5AFF4F80E098E0918380831CA6FC
:1021A0003797118210820E9412026EAB7FAB88AF0C
:1021B00099AF198618861B861A86FE01EE5AFF4FC4
:1021C0008FEF808339968083319610827A971082C0
:1021D00011821282138234961082319611821082FB
:1021E0003C961082399710828AE791E09983888320
:1021F00082E991E09D838C8373968BEC92E09183CE
:102200008083329684ED92E09183808332961182AE
:102210001082CE010E94D80288E991E099838883D8
:1022200080EB91E09D838C8383E190E00E94941287
:102230008C01DC011596DC93CE93149786EB91E02C
:1022400011969C938E9384EC91E017969C938E93B9
:10225000169789EE98E119969C938E9318971F967E
:102260001C921E921E9769EE78E1CE010E944E09E3
:10227000F8019587848798012A5F3F4FDC01139608
:102280003C932E931297128A118A108A87E190E06C
:102290000E949412EC01ECE7F0E08491EDE7F0E0AD
:1022A0008F3F09F03CC08491EEE7F0E0E491FE2F0F
:1022B000E82FFA87E987EFE7F0E08491E0E8F0E0C3
:1022C000E491FE2FE82FF887EF83E1E8F0E0249116
:1022D000CF0102963196E491FE2FE22FFC87EB8727
:1022E0009A838983FC018491888384E893E09C83AA
:1022F0008B8329853A858F819885820F931FFC01F6
:10230000EC57FC4FFE87ED87108248EC51E05E836E
:102310004D83E4E8F3E0815060F01192FCCF90E04F
:102320009A878987E491F0E0F887EF83EEE7F0E0A1
:10233000CECF2A5F3F4F388B2F871A8A198AD80150
:102340001496ED91FC91159713821282FC8BEB8B06
:1023500013961C921E9212971E8B0D8BED91FC9181
:102360000190F081E02DBE01C8010995D09388034A
:10237000C09387038DE00E949A008CE00E949A002F
:1023800080E0C82E80E0D82E00918703109188034A
:10239000F801C189D289F12C2097D9F16885798516
:1023A0006115710581F18E819F81DC01ED91FC91B8
:1023B0000480F581E02D099588859985DC01ED91F2
:1023C000FC910280F381E02D09958823C9F00E94D9
:1023D00012028C849D84AE84BF84681979098A09AD
:1023E0009B0961347F418105910568F00E941202CA
:1023F0006C877D878E879F871A8A8889882319F042
:10240000CE010E9468078A89F80E0A80DB81C02D00
:10241000C3CFD8011D96ED91FC911E97F082539683
:10242000CD91DC91209759F0E881F9810190F081FC
:10243000E02DCE0109950A80DB81C02DF3CFF80194
:10244000C589D689209759F0E881F9810280F38106
:10245000E02DCE0109950A80DB81C02DF3CF61E02C
:1024600080918403811101C060E08DE00E94C6016B
:1024700061E080918503811101C060E08CE00E94E1
:10248000C601C114D10409F47FCF0E94230188231F
:1024900009F47ACF0E94000077CFE7EEF2E01382D2
:1024A000128288EE93E0A0E0B0E084839583A68357
:1024B000B78380E491E09183808385EC90E09587F9
:1024C000848784EC90E09787868780EC90E0918BFE
:1024D000808B81EC90E0938B828B82EC90E0958BEB
:1024E000848B86EC90E0978B868B118E128E138EE8
:1024F000148E0895AA1BBB1B51E107C0AA1FBB1F66
:10250000A617B70710F0A61BB70B881F991F5A957F
:10251000A9F780959095BC01CD010895EE0FFF1F9E
:102520000590F491E02D09940F931F93CF93DF93BF
:102530008230910510F482E090E0E0918B03F091FD
:102540008C0330E020E0B0E0A0E0309799F4211552
:10255000310509F44AC0281B390B24303105D8F560
:102560008A819B816115710589F1FB0193838283C7
:10257000FE0111C040815181028113814817590722
:10258000E0F04817590799F4109761F012960C93F0
:10259000129713961C933296CF01DF91CF911F9122
:1025A0000F91089500938B0310938C03F4CF2115A2
:1025B000310551F04217530738F0A901DB019A01A8
:1025C000BD01DF01F801C1CFEF01F9CF90938C037A
:1025D00080938B03CDCFFE01E20FF31F8193919384
:1025E0002250310939832883D7CF20918903309134
:1025F0008A03232B41F4209102013091030130938F
:102600008A03209389032091000130910101211553
:10261000310541F42DB73EB74091040150910501B9
:10262000241B350BE0918903F0918A03E217F3072D
:10263000A0F42E1B3F0B2817390778F0AC014E5F32
:102640005F4F2417350748F04E0F5F1F50938A03E2
:1026500040938903819391939FCFF0E0E0E09CCF7A
:10266000CF93DF930097E9F0FC0132971382128237
:10267000A0918B03B0918C03ED0130E020E0109726
:10268000A1F420813181820F931F20918903309121
:102690008A032817390709F061C0F0938A03E09391
:1026A0008903DF91CF910895EA01CE17DF07E8F59E
:1026B0004A815B819E0141155105B1F7E901FB8318
:1026C000EA8349915991C40FD51FEC17FD0761F4B6
:1026D000808191810296840F951FE90199838883F7
:1026E000828193819B838A83F0E0E0E012968D9152
:1026F0009C9113970097B9F52D913C911197CD01BD
:102700000296820F931F2091890330918A03281724
:10271000390739F6309751F510928C0310928B03DC
:10272000B0938A03A0938903BCCFD383C283408133
:102730005181840F951FC817D90761F44E5F5F4F11
:1027400088819981480F591F518340838A819B81D9
:10275000938382832115310509F0B0CFF0938C0368
:10276000E0938B039ECFFD01DC01C0CF1382128268
:10277000D7CFF894FFCF00008D0380000000000049
:102780005B0834093D09E4078107FCFF0000CB0723
:10279000000000004C0600000000040EF00D430293
:1027A000000000001D059C0BA60C310D060D40021B
:1027B0004B09000000005901B900E600A60117010D
:1027C000F50009010000000050054D094505000015
:1027D00000008E0E4909460943091D051D051D050A
:1027E0001B051A05CB03FCFF0000170500000000C5
:1027F0008E0E35024E0970091D05E902720C1B058B
:102800001A05CB03FCFF0000170500000000470F6E
:1028100035024E097009A90BE902720C1B051A0555
:10282000CB03FCFF00001705000000001106D405D3
:10283000940578058B09FAFF0000990A0D0A0041FA
:1028400054003F2C434F4E4E454354003F2C434CC5
:102850004F534544003F2C434F4E4E454354204672
:1028600041494C0052454144590053454E44204F84
:102870004B004552524F520042555359202A0053A3
:10288000454E44204641494C002B4950442C3F2C96
:102890002A3A0041542B43495053454E443D004190
:1028A0005445300041542B43574D4F44453D320071
:1028B00041542B4357444843503D302C3100222C87
:1028C00031302C0041542B43575341503D2200419D
:1028D000542B4349504D4F44453D300041542B4308
:1028E00049504D55583D310041542B5253540041ED
:1028F000542B434950434C4F53453D00222C002C50
:1029000022544350222C220041542B43495053540B
:102910004152543D0041542B434950534552564572
:10292000523D300041542B43495053455256455275
:102930003D312C0041542B43495053544F3D3330CB
:102940000052656D6F746558590031323334353635
:0429500037383900DB
:107E0000112484B714BE81FFF0D085E080938100F7
:107E100082E08093C00088E18093C10086E0809377
:107E2000C20080E18093C4008EE0C9D0259A86E02C
:107E300020E33CEF91E0309385002093840096BBD3
:107E4000B09BFECF1D9AA8958150A9F7CC24DD24C4
:107E500088248394B5E0AB2EA1E19A2EF3E0BF2EE7
:107E6000A2D0813461F49FD0082FAFD0023811F036
:107E7000013811F484E001C083E08DD089C08234E0
:107E800011F484E103C0853419F485E0A6D080C0E4
:107E9000853579F488D0E82EFF2485D0082F10E0AE
:107EA000102F00270E291F29000F111F8ED06801E7
:107EB0006FC0863521F484E090D080E0DECF843638
:107EC00009F040C070D06FD0082F6DD080E0C81688
:107ED00080E7D80618F4F601B7BEE895C0E0D1E017
:107EE00062D089930C17E1F7F0E0CF16F0E7DF06D8
:107EF00018F0F601B7BEE89568D007B600FCFDCFD4
:107F0000A601A0E0B1E02C9130E011968C91119780
:107F100090E0982F8827822B932B1296FA010C0160
:107F200087BEE89511244E5F5F4FF1E0A038BF0790
:107F300051F7F601A7BEE89507B600FCFDCF97BE46
:107F4000E89526C08437B1F42ED02DD0F82E2BD052
:107F50003CD0F601EF2C8F010F5F1F4F84911BD097
:107F6000EA94F801C1F70894C11CD11CFA94CF0C13
:107F7000D11C0EC0853739F428D08EE10CD085E9AC
:107F80000AD08FE07ACF813511F488E018D01DD067
:107F900080E101D065CF982F8091C00085FFFCCF94
:107FA0009093C60008958091C00087FFFCCF809118
:107FB000C00084FD01C0A8958091C6000895E0E648
:107FC000F0E098E1908380830895EDDF803219F02E
:107FD00088E0F5DFFFCF84E1DECF1F93182FE3DFCA
:107FE0001150E9F7F2DF1F91089580E0E8DFEE27F6
:047FF000FF270994CA
:027FFE00040479
:00000001FF
