:020000040000FA
:100000000C946D000C9495000C9495000C94950044
:100010000C9495000C9495000C9495000C9495000C
:100020000C9495000C9495000C9495000C949500FC
:100030000C9495000C9495000C9495000C949500EC
:100040000C94AD060C9495000C9495000C949500BE
:100050000C9495000C9495000C9495000C949500CC
:100060000C94F7060C9495000000000800020100B3
:100070000003040700000000000000001F1C1F1EFA
:100080001F1E1F1F1E1F1E31373A34333A333600EE
:1000900053657020323420323032330000000000CB
:1000A000250028002B0000000000240027002A0063
:1000B000040404040404040402020202020203030E
:1000C0000303030301020408102040800102040816
:1000D0001020010204081020160811241FBECFEFC3
:1000E000D8E0DEBFCDBF22E0A6E3B1E001C01D92A3
:1000F000A332B207E1F711E0A0E0B1E0EAE6F8E1EF
:1001000002C005900D92A633B107D9F710E0CDE6F5
:10011000D0E004C02197FE010E94080BCC36D10725
:10012000C9F70E9445080C94330C0C94000090E031
:10013000FC01EC53FF4F249180559F4FFC018491AB
:10014000882399F090E0880F991FFC01EA55FF4F32
:10015000A591B491FC01E456FF4F859194918FB71E
:10016000F894EC91E22BEC938FBF089508950895D5
:10017000AF92BF92CF92DF92EF92FF920F931F93B5
:10018000CF93DF936C017B018B01040F151FEB01F3
:100190005E01AE18BF08C017D10759F06991D601AA
:1001A000ED91FC910190F081E02DC6010995892B1C
:1001B00079F7C501DF91CF911F910F91FF90EF90DB
:1001C000DF90CF90BF90AF90089590E0FC01E85988
:1001D000FF4F2491FC01EC53FF4F3491FC01E0559B
:1001E000FF4FE491EE23C9F0222339F0233001F1CF
:1001F000A8F4213019F1223029F1F0E0EE0FFF1FB1
:10020000E456FF4FA591B4918FB7F894EC9161112A
:1002100026C030953E233C938FBF08952730A9F028
:100220002830C9F0243049F7809180008F7D03C0C9
:10023000809180008F7780938000DFCF84B58F77A7
:1002400084BDDBCF84B58F7DFBCF8091B0008F77ED
:100250008093B000D2CF8091B0008F7DF9CF3E2B3C
:10026000DACF3FB7F89480917F0190918001A091FF
:100270008101B091820126B5A89B05C02F3F19F0DE
:100280000196A11DB11D3FBFBA2FA92F982F882716
:10029000BC01CD01620F711D811D911D42E0660FF1
:1002A000771F881F991F4A95D1F70895FC01908107
:1002B00090539A3008F090E0818180532AE0929F19
:1002C000800D1124089520915701260F3327331FE5
:1002D00021323105ECF42091D101FC0190E080E065
:1002E000243069F082E00895A09157012191AC017A
:1002F000495C5E4FA40FB52FB11D2C930196861754
:1003000098F380915701680F6093570180E008953A
:1003100081E008951092D10181E08093D001109284
:10032000AB0161E082E10E94E50061E083E10E94AF
:10033000E500E9EBF0E080818E7F808380818D7F16
:10034000808388E48093B80085E48093BC0008959E
:1003500010928A01109289011092D8011092FA012C
:100360000E948A0186EB90E0909388018093870138
:1003700087EB90E090938601809385010895CF9359
:10038000DF9391E0909336018823B9F0C091B800D3
:10039000D091BA008091BC008A7B8093BC0060E061
:1003A00082E10E94E50060E083E10E94E5000E9496
:1003B0008A01D093BA00C093B800DF91CF9108951D
:1003C0008F929F92AF92BF92CF92DF92EF92FF9265
:1003D0000F931F93CF93DF93D091FA01D13208F09E
:1003E000D7C0182FC091F9010E9431016B017C0127
:1003F0008091D10181116BC082E08093D101109373
:10040000D0018FEF8093CF011092CE01D093CD0118
:10041000A9EDB1E0EDEAF1E080E0D81391C01092CF
:10042000AC018091AC01CC0FC82BC093AC01809182
:10043000AB01813009F088C01092AB010E943101FC
:100440006B017C018091AC018093BB008091D30152
:100450009091D401A091D501B091D601892B8A2B1E
:100460008B2BA1F00E9431010091D3011091D40196
:100470002091D5013091D6016C197D098E099F0913
:10048000061717072807390708F442C08091BC00F7
:1004900083FDD8CF85EC8093BC000E9431016B01B5
:1004A0007C018091D101823009F450C08091CF014C
:1004B0008F3F09F46FC08091CF01803209F46CC086
:1004C0008091CF01803309F469C084E026C0809117
:1004D000D3019091D401A091D501B091D601892B7F
:1004E0008A2B8B2B09F484CF0E9431018090D30199
:1004F0009090D401A090D501B090D6016C197D09DF
:100500008E099F0986169706A806B90608F070CFCF
:100510008091D2010E94BF0185E01092D801109213
:10052000FA011092D701DF91CF911F910F91FF90A7
:10053000EF90DF90CF90BF90AF909F908F900895F5
:100540009D9191938F5F69CF85EEA5CF8091D30167
:100550009091D401A091D501B091D601892B8A2B1D
:100560008B2B09F49ECF0E9431010091D301109191
:10057000D4012091D5013091D6016C197D098E09E5
:100580009F09061717072807390708F08ACFC0CF39
:1005900081E0C3CF80E0C1CF82E0BFCF83E0BDCF99
:1005A000CF93DF93EC018B818823A1F0888191E0C8
:1005B0009093D7018093F9011092D8011092FA011B
:1005C00081E00E94E00191E0811190E0892FDF91AC
:1005D000CF9108950E94A80181E08B83CE010E94F3
:1005E000D002982F8111E2CFF1CF0895E0918A01D6
:1005F00080918901E81730F4F0E0E557FE4F8081E3
:1006000090E008958FEF9FEF089590918A01809177
:1006100089012FEF3FEF981748F4E92FF0E0E557F5
:10062000FE4F208130E09F5F90938A01C9010895B9
:100630008091890190918A01891B990B0895CF922D
:10064000DF92EF92FF920F931F93CF93DF937C0182
:10065000CB018A012091D701222389F0EB016B01A4
:10066000C40ED51ECC15DD0569F06991D701ED9159
:10067000FC910190F081E02DC7010995F3CF642F23
:100680000E946301C801DF91CF911F910F91FF90EC
:10069000EF90DF90CF900895CF93DF931F92CDB767
:1006A000DEB769832091D7012223F9F02091FA0166
:1006B000203258F021E030E0FC013383228390E0C7
:1006C00080E00F90DF91CF9108958091D801E82FBD
:1006D000F0E0E752FE4F998190838F5F8093D801BD
:1006E0008093FA0181E090E0ECCF61E0CE010196C9
:1006F0000E946301F7CF089590E080E008951F9372
:10070000CF93DF93DC011496ED91FC91E417F5078C
:1007100010F490E01FC0122FEA01FC018181928148
:10072000208131E03093D7012093F9011092D80154
:100730001092FA01DC01ED91FC910280F381E02D31
:100740000995C817D90729F7812F0E94E00191E088
:100750008111DFCF892FDF91CF911F9108952F92C3
:100760003F924F925F926F927F928F929F92AF9241
:10077000BF92CF92DF92EF92FF920F931F93CF938E
:10078000DF935C011B016A01F12CE12CD501149669
:100790008D919C9186010E191F098017910708F40D
:1007A0008C01F501D0810E9431012B013C01809127
:1007B000D101811172C0C02F013208F0C0E2F1E016
:1007C000F093D10121E0C601801B910BE816F906D8
:1007D00008F420E02093D0018FEF8093CF01109296
:1007E000CE018C0F8093CD01A1E0A093AC0180914C
:1007F000AC01DD0FD82BD093AC018091AB018130DF
:1008000009F090C01092AB010E9431012B013C0114
:100810008091AC018093BB008091D3019091D40171
:10082000A091D501B091D601892B8A2B8B2BA1F0F9
:100830000E9431012091D3013091D4014091D50122
:100840005091D6016419750986099709261737074B
:100850004807590708F442C08091BC0083FDD8CFF7
:10086000B5ECB093BC000E9431012B013C0180919A
:10087000D101813009F45AC08091CE018C1710F457
:10088000C091CE01ADEAB1E0EBE8F1E080E08C1779
:1008900051F19D9191938F5FFACF8091D301909107
:1008A000D401A091D501B091D601892B8A2B8B2B35
:1008B00009F47DCF0E9431012091D3013091D40100
:1008C0004091D5015091D60164197509860997099F
:1008D000261737074807590708F069CF8091D201DA
:1008E0000E94BF01C0E010928A01C0938901C01725
:1008F000110609F057C041018E0C9F1CE401CE0186
:10090000881999098017910798F5D50111968D914D
:100910009C91DC01ED91FC910284F385E02D099519
:100920008993EDCFE5EEE093BC009DCF8091D3019C
:100930009091D401A091D501B091D601892B8A2B39
:100940008B2B09F494CF0E9431012091D301309177
:10095000D4014091D5015091D601641975098609D9
:100960009709261737074807590708F080CFB6CFF1
:10097000E00EF11EEC14FD0408F408CF81E0DF91D5
:10098000CF911F910F91FF90EF90DF90CF90BF908C
:10099000AF909F908F907F906F905F904F903F901F
:1009A0002F90089580E0EBCFCF93DF93EC0160E0D0
:1009B0008E810E94E50061E08E810E94E50060E08A
:1009C0008E810E94E5008BE891E00197F1F7DF91BD
:1009D000CF910895CF92DF92EF92FF920F931F93E2
:1009E000CF93DF936C017C0187E0E80EF11CD0E02F
:1009F000C0E0062F10E0B8010C2E02C07595679577
:100A00000A94E2F76170F70181917F010E94E5008D
:100A10002196C430D10579F7C601DF91CF911F919E
:100A20000F91FF90EF90DF90CF900C94D404CF9271
:100A3000DF92EF92FF920F931F93CF93DF93EC011E
:100A4000F62E642F8C810E94E5008D818F3F19F076
:100A500060E00E94E5000F2D10E08F8584FF25C027
:100A60006E0187E0C80ED11CF12CE12CB8010E2CD0
:100A700002C0759567950A94E2F76170F60181915D
:100A80006F010E94E500FFEFEF1AFF0A88E0E81609
:100A9000F10461F7CE01DF91CF911F910F91FF908B
:100AA000EF90DF90CF900C94D404B80184E075955A
:100AB00067958A95E1F7CE010E94EA046F2DCE0179
:100AC000DF91CF911F910F91FF90EF90DF90CF902A
:100AD0000C94EA0440E0682F87E092E00C9417053C
:100AE000CF93DF93613029F0909116029860909334
:100AF000160260931A0210921B0290E490931C025B
:100B000080931D02805C80931E0280910B020E94E4
:100B1000970080910C028F3F11F00E949700809106
:100B20000D020E949700C7E0D2E09E01275032409C
:100B30008091160284FD0AC084E090E02196281777
:100B400039073CF48E810E949700EFCF88E090E057
:100B5000F5CF8BE39DE00197F1F760E080910B0208
:100B60000E94E50060E080910D020E94E500809106
:100B70000C028F3F19F060E00E94E50080911602A0
:100B800084FD39C063E087E092E00E94EA04CBE490
:100B9000D6E4CE010197F1F763E087E092E00E948E
:100BA000EA042197F1F763E087E092E00E94EA040B
:100BB00083E592E00197F1F762E087E092E00E941E
:100BC000EA048091160280620E946A0584E08093A4
:100BD00017028CE00E946A0581E00E946A058BE39F
:100BE0009FE10197F1F782E08093180286E0DF91A0
:100BF000CF910C946A0580620E946A058BE496E4AA
:100C00000197F1F78091160280620E946A0583E5E0
:100C100092E00197F1F78091160280620E946A05C6
:100C2000D0CF41E00E94170581E090E0089541E0B7
:100C3000682F87E092E00E94170581E090E0089518
:100C40008F929F92AF92BF920F931F93CF93DF9398
:100C5000CDB7DEB7A1970FB6F894DEBF0FBECDBFFC
:100C600019A2423008F44AE08E010F5D1F4F842E16
:100C7000912CB12CA12CA50194010E94E60AE62F2B
:100C8000B901CA01EA3044F5E05DD801EE938D0167
:100C9000232B242B252B79F790E080E0109769F027
:100CA000FD0101900020E9F73197AF014A1B5B0B72
:100CB000BD0187E092E00E94B800A1960FB6F894BB
:100CC000DEBF0FBECDBFDF91CF911F910F91BF90BF
:100CD000AF909F908F900895E95CD7CF682F70E018
:100CE00090E080E04AE00C94200685ED8093BC0003
:100CF0008091D3019091D401A091D501B091D601FA
:100D00000796A11DB11D23E0B695A79597958795E8
:100D10002A95D1F72091BC0024FD03C01092D10187
:100D200008954091D3015091D4016091D501709103
:100D3000D601452B462B472B69F30097A105B1053A
:100D400041F025E32A95F1F700000197A109B109C7
:100D5000E1CF8091D2010C94BF011F920F920FB688
:100D60000F9211242F933F938F939F93AF93BF9331
:100D700080917B0190917C01A0917D01B0917E01D9
:100D800030917A0123E0230F2D3758F50196A11DEC
:100D9000B11D20937A0180937B0190937C01A093F5
:100DA0007D01B0937E0180917F0190918001A0919F
:100DB0008101B09182010196A11DB11D80937F0137
:100DC00090938001A0938101B0938201BF91AF9174
:100DD0009F918F913F912F910F900FBE0F901F9079
:100DE000189526E8230F0296A11DB11DD2CF1F92A0
:100DF0000F920FB60F9211242F933F934F935F934F
:100E00006F937F938F939F93AF93BF93EF93FF93D2
:100E10008091B900887F803609F44AC0F0F58832A5
:100E200009F4A7C018F5803109F49BC0B8F48823F1
:100E300009F4F9C0883009F494C0FF91EF91BF9193
:100E4000AF919F918F917F916F915F914F913F9162
:100E50002F910F900FBE0F901F901895883109F4B5
:100E600088C0803251F78093CF0114C0803409F4D8
:100E70009DC040F48033B9F38833F9F68093CF01F5
:100E800085ECB0C0803509F485C0883509F496C07A
:100E9000883499F60E947506D0CF883909F48CC041
:100EA00038F5883729F050F4883611F0803729F664
:100EB00083E08093D1011092790157C0883809F4FA
:100EC0007BC0803919F0803809F0B7CF8091790163
:100ED000803208F071C0E091790181E08E0F80933B
:100EE00079018091BB00F0E0E75AFE4F80833DC05E
:100EF000803B39F0E0F4803A09F479C0883A09F08F
:100F00009CCF84E08093D101109258011092570138
:100F1000E0918701F0918801099580915701811135
:100F20000FC081E0809357011092370109C0803CC7
:100F300009F4A6CF883C09F4A3CF883B09F07DCF04
:100F4000E091580181E08E0F80935801F0E0E95C58
:100F5000FE4F80818093BB00909158018091570192
:100F600029C08091AC018093BB0085EC8093BC00CC
:100F700064CF9091CE018091CD01981758F5E09102
:100F8000CE0181E08E0F8093CE01F0E0E355FE4F5D
:100F90008081E9CFE091CE0181E08E0F8093CE0178
:100FA0008091BB00F0E0E355FE4F80839091CE012D
:100FB0008091CD019817C8F285E8D8CFE091CE0195
:100FC00081E08E0F8093CE018091BB00F0E0E3556D
:100FD000FE4F80838091D00181115CCF81E08093AE
:100FE000AB0184EA8093BC001092D10126CF85EC3E
:100FF0008093BC001092D10180917901803230F44D
:10100000E0917901F0E0E75AFE4F1082609179019A
:1010100070E0E0918501F091860189E591E0099504
:10102000109279010ACF1092CF0134CFEBEFF1E0AB
:101030001382128288EE93E0A0E0B0E0848395836F
:10104000A683B7838AE091E091838083E7E0F2E0B2
:10105000138212828CE191E09183808387E0848304
:101060008FEF858386E0868385E0878384E08087B1
:1010700083E0818782E08287138614861586168630
:10108000178661E080E10C947005CF93DF93CDB7B4
:10109000DEB72E970FB6F894DEBF0FBECDBF7894A3
:1010A00084B5826084BD84B5816084BD85B582606D
:1010B00085BD85B5816085BD80916E00816080931E
:1010C0006E00109281008091810082608093810087
:1010D0008091810081608093810080918000816097
:1010E000809380008091B10084608093B1008091F2
:1010F000B00081608093B00080917A00846080931A
:101100007A0080917A00826080937A0080917A00E0
:10111000816080937A0080917A00806880937A0061
:101120001092C10064E084E10E947005E1E08091CA
:101130001A028111E0E0E195F0E0E95FFD4F84895A
:1011400080680E946A054DE050E064E271E087E04B
:1011500092E00E94B8000E94A801809183019091C2
:101160008401009711F00E94AA0B86E090E00E9493
:101170000E0B7C0188E6F70180838BEF91E0928370
:101180008183138280E290E095838483F0928401CE
:10119000E09283010E94A80181E0F7018383C701E7
:1011A0000E94D0024BE050E060E970E0CE01019671
:1011B0000E94BD0ACE010A960E945601082FE981BD
:1011C000E154E331D8F40E2E000CFF0BE651F74F3B
:1011D0000C94080B5309FE08FE086709FE08FD0879
:1011E000FE08FE08FE084709FE08FE085A096509C0
:1011F0006309FE08FE08FE08610912E0CE010596AB
:101200000E945601F82E48E050E067E870E0CE01F9
:1012100001960E94BD0ACE0101960E945601E82E59
:10122000CE0104960E945601D82ECE0107960E9448
:101230005601382F1A8219822AE0622F0E94C60AAC
:10124000982F880F890F880F830F8A838D2D0E9416
:10125000C60A982F880F890F880F8D0D8B838E2DCE
:101260000E94C60A982F880F890F880F8E0D8C83D5
:10127000602F70E02F2D30E0ECE7F0E081E0811787
:1012800040F59491290F311D8F5F3196F8CF8A81F7
:1012900011E0813609F4B2CF8B8117E08E3609F068
:1012A000ADCF16E0ABCF8B8118E0823709F0A6CF27
:1012B00014E0A4CF8B8115E0823709F09FCF13E0B3
:1012C0009DCF19E09BCF1AE099CF1BE097CF1CE090
:1012D00095CF133028F0802F837011F42F5F3F4F8C
:1012E000CB0103969695879596958795EDE6F1E067
:1012F0006E9FA0016F9F500D7E9F500D11244B5F7C
:101300005F4F840F951F820F931F67E070E00E946C
:10131000D20A811101C087E08D832AE08F2D622FD0
:101320000E94C60A982F880F890F880F8F0D8E8311
:10133000812F0E94C60A982F990F890F880F180FC6
:101340001F83802F0E94C60A982F880F890F880F4D
:10135000800F888721E048E050E0BE016F5F7F4F3B
:1013600080918301909184010E947F031FE01E877A
:1013700021E041E050E0BE01625F7F4F8091830138
:10138000909184010E947F0341E050E0BE01645FC0
:101390007F4F80918301909184010E94AF038C85DF
:1013A0001C878F778D8721E042E050E0BE01645FAB
:1013B0007F4F80918301909184010E947F03F0E030
:1013C000EF2EF0E0FF2E198200918301109184012D
:1013D00020E041E050E0BE016F5F7F4FC8010E94F6
:1013E0007F03882341F047E050E0BE016F5F7F4FED
:1013F000C8010E94AF0329812F77822F90E034E04B
:10140000959587953A95E1F7982F990F990FB82EF2
:10141000B91ABB0CB20E2A81822F90E044E0959558
:1014200087954A95E1F7982F990F990FA82EA91A39
:10143000AA0CA20E2B81822F90E054E095958795FF
:101440005A95E1F7982F990F990F982E991A990CA0
:10145000920E2D81822F90E064E0959587956A9594
:10146000E1F7982F990F990FC82EC91ACC0CC20E0C
:101470002E812F77822F90E074E0959587957A954D
:10148000E1F7982F990F990FD82ED91ADD0CD20EAB
:101490006F81862F90E0E4E095958795EA95E1F7D6
:1014A000982F990F990F082F091B000F060F10E0B6
:1014B000E0911A02E23008F05EC0E150F0E0E95F2E
:1014C000FD4F848980680E946A05892D0E946E06FE
:1014D0008AE30E9417068A2D0E946E068AE30E9404
:1014E00017068B2D0E946E0642E050E062E371E029
:1014F00087E092E00E94B8008C2D0E946E068FE279
:101500000E9417068D2D0E946E068FE20E9417061C
:101510000053184FB80190E080E04AE00E94200696
:101520000E9431012B013C0184E6882E912CA12CD4
:10153000B12C0E9431016419750986099709683E2A
:10154000734081059105A8F3F1E08F1A9108A10875
:10155000B10828EE420E23E0521E611C711C81145A
:101560009104A104B10429F7E114F10409F42BCF8B
:101570000E94000028CFE1E0A1CFFB01DC0102C006
:1015800005900D9241505040D8F70895991B79E08D
:1015900004C0991F961708F0961B881F7A95C9F703
:1015A00080950895AA1BBB1B51E107C0AA1FBB1F52
:1015B000A617B70710F0A61BB70B881F991F5A95DF
:1015C000A9F780959095BC01CD010895A1E21A2E4E
:1015D000AA1BBB1BFD010DC0AA1FBB1FEE1FFF1FD7
:1015E000A217B307E407F50720F0A21BB30BE40B27
:1015F000F50B661F771F881F991F1A9469F760956E
:101600007095809590959B01AC01BD01CF01089527
:10161000EE0FFF1F0590F491E02D09940F931F9397
:10162000CF93DF938230910510F482E090E0E09157
:101630002102F091220230E020E0B0E0A0E03097FB
:1016400099F42115310509F44AC0281B390B2430BF
:101650003105D8F58A819B816115710589F1FB01FE
:1016600093838283FE0111C04081518102811381E5
:1016700048175907E0F04817590799F4109761F097
:1016800012960C93129713961C933296CF01DF910A
:10169000CF911F910F910895009321021093220280
:1016A000F4CF2115310551F04217530738F0A90145
:1016B000DB019A01BD01DF01F801C1CFEF01F9CFD4
:1016C0009093220280932102CDCFFE01E20FF31FFF
:1016D000819391932250310939832883D7CF209168
:1016E0001F0230912002232B41F4209102013091FE
:1016F00003013093200220931F02209100013091BA
:1017000001012115310541F42DB73EB74091040187
:1017100050910501241B350BE0911F02F09120022E
:10172000E217F307A0F42E1B3F0B2817390778F0B8
:10173000AC014E5F5F4F2417350748F04E0F5F1F17
:101740005093200240931F02819391939FCFF0E02A
:10175000E0E09CCFCF93DF930097E9F0FC01329754
:1017600013821282A0912102B0912202ED0130E099
:1017700020E01097A1F420813181820F931F2091E6
:101780001F02309120022817390709F061C0F09339
:101790002002E0931F02DF91CF910895EA01CE1756
:1017A000DF07E8F54A815B819E0141155105B1F7DC
:1017B000E901FB83EA8349915991C40FD51FEC17C6
:1017C000FD0761F4808191810296840F951FE901E4
:1017D00099838883828193819B838A83F0E0E0E010
:1017E00012968D919C9113970097B9F52D913C918C
:1017F0001197CD010296820F931F20911F02309105
:1018000020022817390739F6309751F51092220235
:1018100010922102B0932002A0931F02BCCFD38369
:10182000C28340815181840F951FC817D90761F485
:101830004E5F5F4F88819981480F591F51834083C4
:101840008A819B81938382832115310509F0B0CF72
:10185000F0932202E09321029ECFFD01DC01C0CF74
:1018600013821282D7CFF894FFCF000023028000AA
:10187000000000004C031F037C03F502180305035E
:10188000F602000000001106B8007C037B034469E7
:10189000676974616C20436C6F636B0020200000EB
:107E0000112484B714BE81FFF0D085E080938100F7
:107E100082E08093C00088E18093C10086E0809377
:107E2000C20080E18093C4008EE0C9D0259A86E02C
:107E300020E33CEF91E0309385002093840096BBD3
:107E4000B09BFECF1D9AA8958150A9F7CC24DD24C4
:107E500088248394B5E0AB2EA1E19A2EF3E0BF2EE7
:107E6000A2D0813461F49FD0082FAFD0023811F036
:107E7000013811F484E001C083E08DD089C08234E0
:107E800011F484E103C0853419F485E0A6D080C0E4
:107E9000853579F488D0E82EFF2485D0082F10E0AE
:107EA000102F00270E291F29000F111F8ED06801E7
:107EB0006FC0863521F484E090D080E0DECF843638
:107EC00009F040C070D06FD0082F6DD080E0C81688
:107ED00080E7D80618F4F601B7BEE895C0E0D1E017
:107EE00062D089930C17E1F7F0E0CF16F0E7DF06D8
:107EF00018F0F601B7BEE89568D007B600FCFDCFD4
:107F0000A601A0E0B1E02C9130E011968C91119780
:107F100090E0982F8827822B932B1296FA010C0160
:107F200087BEE89511244E5F5F4FF1E0A038BF0790
:107F300051F7F601A7BEE89507B600FCFDCF97BE46
:107F4000E89526C08437B1F42ED02DD0F82E2BD052
:107F50003CD0F601EF2C8F010F5F1F4F84911BD097
:107F6000EA94F801C1F70894C11CD11CFA94CF0C13
:107F7000D11C0EC0853739F428D08EE10CD085E9AC
:107F80000AD08FE07ACF813511F488E018D01DD067
:107F900080E101D065CF982F8091C00085FFFCCF94
:107FA0009093C60008958091C00087FFFCCF809118
:107FB000C00084FD01C0A8958091C6000895E0E648
:107FC000F0E098E1908380830895EDDF803219F02E
:107FD00088E0F5DFFFCF84E1DECF1F93182FE3DFCA
:107FE0001150E9F7F2DF1F91089580E0E8DFEE27F6
:047FF000FF270994CA
:027FFE00040479
:00000001FF
