:020000040000FA
:100000000C946E000C9496000C9496000C94960040
:100010000C9496000C9496000C9496000C94960008
:100020000C9496000C9496000C9496000C949600F8
:100030000C9496000C9496000C9496000C949600E8
:100040000C9425060C9496000C94F3050C94CD05A5
:100050000C9496000C9496000C9496000C949600C8
:100060000C946F060C9496000000000025002800F8
:100070002B00040404040404040402020202020229
:10008000030303030303010204081020408001025C
:1000900004081020010204081020000000080002DB
:1000A00001000003040700000000000000001F1C06
:1000B0001F1E1F1E1F1F1E1F1E31303A34313A31C2
:1000C00031005365702032342032303233004461C5
:1000D00074652F54696D653A20008E0711241FBE88
:1000E000CFEFD8E0DEBFCDBF22E0ACE4B1E001C08D
:1000F0001D92AE3DB207E1F711E0A0E0B1E0ECE205
:10010000FDE102C005900D92AC34B107D9F710E0C3
:10011000CEE6D0E004C02197FE010E94C80ACD3689
:10012000D107C9F70E94C7070C94940E0C940000E5
:1001300008950895AF92BF92CF92DF92EF92FF920F
:100140000F931F93CF93DF936C017B018B01040FFF
:10015000151FEB015E01AE18BF08C017D10759F09B
:100160006991D601ED91FC910190F081E02DC601DD
:100170000995892B79F7C501DF91CF911F910F91D7
:10018000FF90EF90DF90CF90BF90AF900895FC016B
:10019000538D448D252F30E0842F90E0821B930BEC
:1001A000541710F0CF96089501970895FC01918D92
:1001B000828D981761F0A28DAE0FBF2FB11D5D9695
:1001C0008C91928D9F5F9F73928F90E008958FEF37
:1001D0009FEF0895FC01918D828D981731F0828DEB
:1001E000E80FF11D858D90E008958FEF9FEF089542
:1001F000FC01918D228D892F90E0805C9F4F821BA6
:1002000091098F739927089581E392E00E94F80085
:1002100021E0892B09F420E0822F089580E090E00E
:10022000892B29F00E94040181110C94000008958B
:10023000FC01A48DA80FB92FB11DA35ABF4F2C915B
:10024000848D90E001968F739927848FA689B78952
:100250002C93A089B1898C91837080648C93938D49
:10026000848D981306C00288F389E02D80818F7DEC
:1002700080830895EF92FF920F931F93CF93DF93A4
:10028000EC0181E0888F9B8D8C8D98131AC0E889D2
:10029000F989808185FF15C09FB7F894EE89FF89A1
:1002A0006083E889F98980818370806480839FBF3F
:1002B00081E090E0DF91CF911F910F91FF90EF903F
:1002C0000895F62E0B8D10E00F5F1F4F0F7311274F
:1002D000E02E8C8D8E110CC00FB607FCFACFE8898A
:1002E000F989808185FFF5CFCE010E941801F1CFF9
:1002F000EB8DEC0FFD2FF11DE35AFF4FF0829FB7FE
:10030000F8940B8FEA89FB8980818062CFCFCF93ED
:10031000DF93EC01888D8823B9F0AA89BB89E8892D
:10032000F9898C9185FD03C0808186FD0DC00FB6D3
:1003300007FCF7CF8C9185FFF2CF808185FFEDCF51
:10034000CE010E941801E9CFDF91CF91089590E08E
:10035000FC01E656FF4F2491FC01EA57FF4F349110
:10036000FC01EE58FF4FE491EE23C9F0222339F04F
:10037000233001F1A8F4213019F1223029F1F0E005
:10038000EE0FFF1FE859FF4FA591B4918FB7F89476
:10039000EC91611126C030953E233C938FBF0895A8
:1003A0002730A9F02830C9F0243049F78091800027
:1003B0008F7D03C0809180008F7780938000DFCF96
:1003C00084B58F7784BDDBCF84B58F7DFBCF8091E3
:1003D000B0008F778093B000D2CF8091B0008F7D36
:1003E000F9CF3E2BDACF3FB7F894809195019091E9
:1003F0009601A0919701B091980126B5A89B05C0E0
:100400002F3F19F00196A11DB11D3FBFBA2FA92F93
:10041000982F8827BC01CD01620F711D811D911D90
:1004200042E0660F771F881F991F4A95D1F70895FC
:1004300020916D01260F3327331F21323105ECF453
:1004400020910702FC0190E080E0243069F082E016
:100450000895A0916D012191AC01435B5E4FA40F03
:10046000B52FB11D2C930196861798F380916D01DD
:10047000680F60936D0180E0089581E00895109207
:10048000070281E0809306021092E10161E082E1BF
:100490000E94A70161E083E10E94A701E9EBF0E07F
:1004A00080818E7F808380818D7F808388E48093AC
:1004B000B80085E48093BC0008951092C0011092AA
:1004C000BF0110920E02109230020E943F0288E992
:1004D00090E09093BE018093BD0189E990E09093F4
:1004E000BC018093BB010895CF93DF9391E090937B
:1004F0004C018823B9F0C091B800D091BA00809126
:10050000BC008A7B8093BC0060E082E10E94A7016E
:1005100060E083E10E94A7010E943F02D093BA00ED
:10052000C093B800DF91CF9108958F929F92AF92C0
:10053000BF92CF92DF92EF92FF920F931F93CF93D0
:10054000DF93D0913002D13208F0D7C0182FC0917C
:100550002F020E94F3016B017C018091070281113F
:100560006BC082E080930702109306028FEF8093A6
:10057000050210920402D0930302AFE0B2E0E3EE72
:10058000F1E080E0D81391C01092E2018091E20185
:10059000CC0FC82BC093E2018091E101813009F0BA
:1005A00088C01092E1010E94F3016B017C018091EF
:1005B000E2018093BB008091090290910A02A09110
:1005C0000B02B0910C02892B8A2B8B2BA1F00E947D
:1005D000F3010091090210910A0220910B0230915F
:1005E0000C026C197D098E099F0906171707280749
:1005F000390708F442C08091BC0083FDD8CF85EC58
:100600008093BC000E94F3016B017C018091070282
:10061000823009F450C0809105028F3F09F46FC009
:1006200080910502803209F46CC08091050280330C
:1006300009F469C084E026C08091090290910A0201
:10064000A0910B02B0910C02892B8A2B8B2B09F401
:1006500084CF0E94F3018090090290900A02A0903A
:100660000B02B0900C026C197D098E099F09861649
:100670009706A806B90608F070CF809108020E947C
:10068000740285E010920E021092300210920D0258
:10069000DF91CF911F910F91FF90EF90DF90CF905E
:1006A000BF90AF909F908F9008959D9191938F5F91
:1006B00069CF85EEA5CF8091090290910A02A091A1
:1006C0000B02B0910C02892B8A2B8B2B09F49ECF45
:1006D0000E94F3010091090210910A0220910B027D
:1006E00030910C026C197D098E099F0906171707B6
:1006F0002807390708F08ACFC0CF81E0C3CF80E058
:10070000C1CF82E0BFCF83E0BDCF0895E091C001AB
:100710008091BF01E81730F4F0E0EF53FE4F808185
:1007200090E008958FEF9FEF08959091C001809120
:10073000BF012FEF3FEF981748F4E92FF0E0EF5398
:10074000FE4F208130E09F5F9093C001C901089562
:100750008091BF019091C001891B990B0895CF92A0
:10076000DF92EF92FF920F931F93CF93DF937C0161
:10077000CB018A0120910D02222389F0EB016B014C
:10078000C40ED51ECC15DD0569F06991D701ED9138
:10079000FC910190F081E02DC7010995F3CF642F02
:1007A0000E941802C801DF91CF911F910F91FF9015
:1007B000EF90DF90CF900895CF93DF931F92CDB746
:1007C000DEB7698320910D022223F9F020913002D7
:1007D000203258F021E030E0FC013383228390E0A6
:1007E00080E00F90DF91CF91089580910E02E82F65
:1007F000F0E0E15FFD4F998190838F5F80930E025F
:100800008093300281E090E0ECCF61E0CE01019670
:100810000E941802F7CF90E080E00895CF93DF9315
:10082000EC018B818823A1F0888191E090930D02E7
:1008300080932F0210920E021092300281E00E94EB
:10084000950291E0811190E0892FDF91CF91089579
:100850000E945D0281E08B83CE010E940E04982FDE
:100860008111E2CFF1CFFC01908190539A3008F0D2
:1008700090E0818180532AE0929F800D1124089599
:100880001F93CF93DF93DC011496ED91FC91E41755
:10089000F50710F490E01FC0122FEA01FC018181DE
:1008A0009281208131E030930D0220932F0210922B
:1008B0000E0210923002DC01ED91FC910280F38176
:1008C000E02D0995C817D90729F7812F0E949502B5
:1008D00091E08111DFCF892FDF91CF911F91089592
:1008E0002F923F924F925F926F927F928F929F9240
:1008F000AF92BF92CF92DF92EF92FF920F931F932E
:10090000CF93DF935C011B016A01F12CE12CD5012F
:1009100014968D919C9186010E191F0980179107DD
:1009200008F48C01F501D0810E94F3012B013C01F8
:1009300080910702811172C0C02F013208F0C0E21D
:10094000F1E0F093070221E0C601801B910BE8164D
:10095000F90608F420E0209306028FEF8093050249
:10096000109204028C0F80930302A1E0A093E20195
:100970008091E201DD0FD82BD093E2018091E1015B
:10098000813009F090C01092E1010E94F3012B0127
:100990003C018091E2018093BB008091090290911B
:1009A0000A02A0910B02B0910C02892B8A2B8B2B8F
:1009B000A1F00E94F3012091090230910A024091B6
:1009C0000B0250910C0264197509860997092617C4
:1009D00037074807590708F442C08091BC0083FDDF
:1009E000D8CFB5ECB093BC000E94F3012B013C01C1
:1009F00080910702813009F45AC0809104028C175B
:100A000010F4C0910402A3EEB1E0E1ECF1E080E06B
:100A10008C1751F19D9191938F5FFACF80910902CC
:100A200090910A02A0910B02B0910C02892B8A2BA3
:100A30008B2B09F47DCF0E94F301209109023091A4
:100A40000A0240910B0250910C0264197509860943
:100A50009709261737074807590708F069CF80918B
:100A600008020E947402C0E01092C001C093BF014E
:100A7000C017110609F057C041018E0C9F1CE401FC
:100A8000CE01881999098017910798F5D50111961B
:100A90008D919C91DC01ED91FC910284F385E02D18
:100AA00009958993EDCFE5EEE093BC009DCF809151
:100AB000090290910A02A0910B02B0910C02892BBD
:100AC0008A2B8B2B09F494CF0E94F3012091090209
:100AD00030910A0240910B0250910C026419750981
:100AE00086099709261737074807590708F080CF66
:100AF000B6CFE00EF11EEC14FD0408F408CF81E03F
:100B0000DF91CF911F910F91FF90EF90DF90CF90E9
:100B1000BF90AF909F908F907F906F905F904F901D
:100B20003F902F90089580E0EBCF85ED8093BC003F
:100B30008091090290910A02A0910B02B0910C02DF
:100B40000796A11DB11D23E0B695A79597958795AA
:100B50002A95D1F72091BC0024FD03C01092070212
:100B600008954091090250910A0260910B02709120
:100B70000C02452B462B472B69F30097A105B105C5
:100B800041F025E32A95F1F700000197A109B10989
:100B9000E1CF809108020C9474021F920F920FB65D
:100BA0000F9211242F933F934F935F936F937F93F3
:100BB0008F939F93AF93BF93EF93FF9381E392E063
:100BC0000E941801FF91EF91BF91AF919F918F917A
:100BD0007F916F915F914F913F912F910F900FBE39
:100BE0000F901F9018951F920F920FB60F9211241D
:100BF0002F938F939F93EF93FF93E0914102F09196
:100C000042028081E0914702F091480282FD1BC0C0
:100C1000908180914A028F5F8F7320914B028217DF
:100C200041F0E0914A02F0E0EF5CFD4F958F809338
:100C30004A02FF91EF919F918F912F910F900FBEDC
:100C40000F901F9018958081F4CF1F920F920FB6CE
:100C50000F9211242F933F938F939F93AF93BF9342
:100C60008091910190919201A0919301B091940192
:100C70003091900123E0230F2D3758F50196A11DE7
:100C8000B11D209390018093910190939201A093C4
:100C90009301B09394018091950190919601A09158
:100CA0009701B09198010196A11DB11D8093950106
:100CB00090939601A0939701B0939801BF91AF9143
:100CC0009F918F913F912F910F900FBE0F901F908A
:100CD000189526E8230F0296A11DB11DD2CF1F92B1
:100CE0000F920FB60F9211242F933F934F935F9360
:100CF0006F937F938F939F93AF93BF93EF93FF93E4
:100D00008091B900887F803609F44AC0F0F58832B6
:100D100009F4A7C018F5803109F49BC0B8F4882302
:100D200009F4F9C0883009F494C0FF91EF91BF91A4
:100D3000AF919F918F917F916F915F914F913F9173
:100D40002F910F900FBE0F901F901895883109F4C6
:100D500088C0803251F78093050214C0803409F4B2
:100D60009DC040F48033B9F38833F9F680930502CF
:100D700085ECB0C0803509F485C0883509F496C08B
:100D8000883499F60E949505D0CF883909F48CC033
:100D900038F5883729F050F4883611F0803729F675
:100DA00083E08093070210928F0157C0883809F4BE
:100DB0007BC0803919F0803809F0B7CF80918F015E
:100DC000803208F071C0E0918F0181E08E0F809336
:100DD0008F018091BB00F0E0E159FE4F80833DC060
:100DE000803B39F0E0F4803A09F479C0883A09F0A0
:100DF0009CCF84E08093070210926E0110926D01E7
:100E0000E091BD01F091BE01099580916D018111C4
:100E10000FC081E080936D0110924D0109C0803CAC
:100E200009F4A6CF883C09F4A3CF883B09F07DCF15
:100E3000E0916E0181E08E0F80936E01F0E0E35B44
:100E4000FE4F80818093BB0090916E0180916D0177
:100E500029C08091E2018093BB0085EC8093BC00A7
:100E600064CF9091040280910302981758F5E091A5
:100E7000040281E08E0F80930402F0E0ED51FE4FFA
:100E80008081E9CFE091040281E08E0F809304021B
:100E90008091BB00F0E0ED51FE4F80839091040201
:100EA000809103029817C8F285E8D8CFE091040238
:100EB00081E08E0F809304028091BB00F0E0ED5141
:100EC000FE4F80838091060281115CCF81E0809388
:100ED000E10184EA8093BC001092070226CF85ECE2
:100EE0008093BC001092070280918F01803230F411
:100EF000E0918F01F0E0E159FE4F108260918F0187
:100F000070E0E091BB01F091BC018FE691E00995A2
:100F100010928F010ACF1092050234CFE1E3F2E084
:100F20001382128288EE93E0A0E0B0E08483958380
:100F3000A683B7832AE031E03183208325EC30E0BB
:100F40003587248724EC30E03787268720EC30E093
:100F5000318B208B21EC30E0338B228B22EC30E084
:100F6000358B248B26EC30E0378B268B118E128E3E
:100F7000138E148EEEECF2E013821282848395833A
:100F8000A683B7838CE191E0918380830895CF930A
:100F9000DF93CDB7DEB72E970FB6F894DEBF0FBE46
:100FA000CDBF789484B5826084BD84B5816084BDF2
:100FB00085B5826085BD85B5816085BD80916E00F7
:100FC000816080936E001092810080918100826028
:100FD0008093810080918100816080938100809165
:100FE00080008160809380008091B1008460809354
:100FF000B1008091B00081608093B00080917A0050
:10100000846080937A0080917A00826080937A0075
:1010100080917A00816080937A0080917A00806864
:1010200080937A001092C100E0914102F091420257
:1010300082E08083E0913D02F0913E021082E091D7
:101040003F02F09140028FEC808310924902E091C0
:101050004502F091460286E08083E0914302F091E0
:101060004402808180618083E0914302F0914402D8
:10107000808188608083E0914302F0914402808106
:1010800080688083E0914302F091440280818F7DEB
:1010900080830E945D028091B9019091BA0100970E
:1010A00011F00E946A0B86E090E00E94CE0A7C015B
:1010B00088E6F70180838EEC92E09283818313822D
:1010C00080E290E095838483F092BA01E092B901C6
:1010D0000E945D0281E0F7018383C7010E940E0434
:1010E0004BE050E062EC70E0CE0101960E94680A8D
:1010F000CE010A960E943304082FE981E154E331BE
:10110000D8F40E2E000CFF0BE857F74F0C94C80ACA
:10111000F1089C089C0805099C089B089C089C08F1
:101120009C08E5089C089C08F808030901099C082C
:101130009C089C08FF0812E0CE0105960E9433042B
:10114000F82E48E050E069EB70E0CE0101960E9475
:10115000680ACE0101960E943304E82ECE0104965F
:101160000E943304D82ECE0107960E943304382FF4
:101170001A8219822AE0622F0E94A80A982F880FEB
:10118000890F880F830F8A838D2D0E94A80A982FBC
:10119000880F890F880F8D0D8B838E2D0E94A80AD2
:1011A000982F880F890F880F8E0D8C83602F70E029
:1011B0002F2D30E0EEEAF0E081E0811740F59491C8
:1011C000290F311D8F5F3196F8CF8A8111E081366A
:1011D00009F4B2CF8B8117E08E3609F0ADCF16E05F
:1011E000ABCF8B8118E0823709F0A6CF14E0A4CFF3
:1011F0008B8115E0823709F09FCF13E09DCF19E076
:101200009BCF1AE099CF1BE097CF1CE095CF13300E
:1012100028F0802F837011F42F5F3F4FCB0103968E
:101220009695879596958795EDE6F1E06E9FA001DE
:101230006F9F500D7E9F500D11244B5F5F4F840FA9
:10124000951F820F931F67E070E00E94B40A81111E
:1012500001C087E08D832AE08F2D622F0E94A80AAB
:10126000982F880F890F880F8F0D8E83812F0E94F2
:10127000A80A982F990F890F880F180F1F83802FA6
:101280000E94A80A982F880F890F880F800F8887DF
:1012900021E048E050E0BE016F5F7F4F8091B901CF
:1012A0009091BA010E9440041FE01E8721E041E0B6
:1012B00050E0BE01625F7F4F8091B9019091BA0109
:1012C0000E94400441E050E0BE01645F7F4F809186
:1012D000B9019091BA010E9470048C851C878F77A8
:1012E0008D8721E042E050E0BE01645F7F4F809136
:1012F000B9019091BA010E944004FAE2EF2EF1E0A8
:10130000FF2E09E911E0A0E0CA2EA0E0DA2E198232
:10131000A090B901B090BA0120E041E050E0BE01D8
:101320006F5F7F4FC5010E944004882341F047E072
:1013300050E0BE016F5F7F4FC5010E94700469815C
:101340006F775A814B817D81EE81EF779F81292FC5
:1013500030E0F4E035952795FA95E1F7822F880F74
:10136000880FF22FF81B8F2F880F890F90E0805382
:10137000984F9F938F938E2F90E0A4E0959587953B
:10138000AA95E1F7982F990F990F891B880F8E0F57
:101390001F928F93272F30E0B4E035952795BA95AB
:1013A000E1F7822F880F880F281B220F270F1F922B
:1013B0002F93862F90E024E0959587952A95E1F765
:1013C000982F990F990F891B880F860F1F928F9363
:1013D000252F30E064E0359527956A95E1F7822F57
:1013E000880F880F281B220F250F1F922F93842F01
:1013F00090E074E0959587957A95E1F7982F990F8D
:10140000990F891B880F840F1F928F93FF92EF9281
:101410001F930F930E94F30BEEECAE2EE0E0BE2E76
:101420000FB6F894DEBF0FBECDBFF5016491662301
:1014300049F081E392E00E943A01FFEFAF1ABF0A40
:10144000892B99F7F80101900020E9F7AF014A597B
:10145000514069E971E081E392E00E949A0042E024
:1014600050E068E471E081E392E00E949A000E94FB
:10147000F3012B013C0188EE882E83E0982EA12CED
:10148000B12C0E94F3016419750986099709683E19
:10149000734081059105A8F3F1E08F1A9108A10826
:1014A000B10828EE420E23E0521E611C711C81140B
:1014B0009104A104B10429F7C114D10409F427CF80
:1014C0000E940401882309F422CF0E9400001FCF4C
:1014D000FB01DC0102C005900D9241505040D8F74D
:1014E00008952F923F924F925F926F927F928F92C8
:1014F0009F92AF92BF92CF92DF92EF92FF920F93A3
:101500001F93CF93DF93CDB7DEB7CA1BDB0B0FB6AC
:10151000F894DEBF0FBECDBF09942A883988488869
:101520005F846E847D848C849B84AA84B984C884FF
:10153000DF80EE80FD800C811B81AA81B981CE0FF6
:10154000D11D0FB6F894DEBF0FBECDBFED010895DB
:10155000991B79E004C0991F961708F0961B881F05
:101560007A95C9F780950895AA1BBB1B51E107C066
:10157000AA1FBB1FA617B70710F0A61BB70B881F23
:10158000991F5A95A9F780959095BC01CD010895B2
:10159000EE0FFF1F0590F491E02D09940F931F9318
:1015A000CF93DF938230910510F482E090E0E091D8
:1015B000DC02F091DD0230E020E0B0E0A0E0309706
:1015C00099F42115310509F44AC0281B390B243040
:1015D0003105D8F58A819B816115710589F1FB017F
:1015E00093838283FE0111C0408151810281138166
:1015F00048175907E0F04817590799F4109761F018
:1016000012960C93129713961C933296CF01DF918A
:10161000CF911F910F9108950093DC021093DD028A
:10162000F4CF2115310551F04217530738F0A901C5
:10163000DB019A01BD01DF01F801C1CFEF01F9CF54
:101640009093DD028093DC02CDCFFE01E20FF31F09
:10165000819391932250310939832883D7CF2091E8
:10166000DA023091DB02232B41F420910201309108
:1016700003013093DB022093DA02209100013091C4
:1016800001012115310541F42DB73EB74091040108
:1016900050910501241B350BE091DA02F091DB0239
:1016A000E217F307A0F42E1B3F0B2817390778F039
:1016B000AC014E5F5F4F2417350748F04E0F5F1F98
:1016C0005093DB024093DA02819391939FCFF0E035
:1016D000E0E09CCFCF93DF930097E9F0FC013297D5
:1016E00013821282A091DC02B091DD02ED0130E0A4
:1016F00020E01097A1F420813181820F931F209167
:10170000DA023091DB022817390709F061C0F09343
:10171000DB02E093DA02DF91CF910895EA01CE1760
:10172000DF07E8F54A815B819E0141155105B1F75C
:10173000E901FB83EA8349915991C40FD51FEC1746
:10174000FD0761F4808191810296840F951FE90164
:1017500099838883828193819B838A83F0E0E0E090
:1017600012968D919C9113970097B9F52D913C910C
:101770001197CD010296820F931F2091DA023091CA
:10178000DB022817390739F6309751F51092DD0240
:101790001092DC02B093DB02A093DA02BCCFD383B9
:1017A000C28340815181840F951FC817D90761F406
:1017B0004E5F5F4F88819981480F591F5183408345
:1017C0008A819B81938382832115310509F0B0CFF3
:1017D000F093DD02E093DC029ECFFD01DC01C0CF7F
:1017E00013821282D7CFAEE0B0E0E9EFFBE00C94B9
:1017F0007F0A0D891E8986E08C831A8309838FEF07
:101800009FE79E838D83AE01475E5F4F6F89788D22
:10181000CE0101960E94160C2F813885020F131FEE
:10182000F80110822E96E4E00C949B0AABE0B0E045
:10183000ECE1FCE00C94710A7C013B018A01FC01A3
:1018400017821682838181FFC8C1CE0101965C0197
:10185000F7019381F30193FD859193FF81913F01FE
:10186000882309F453C1853239F493FD859193FFA0
:1018700081913F01853229F4B70190E00E94060E64
:10188000E7CF912C212C312CFFE1F31538F08B326E
:1018900011F190F4803209F1833229F137FC3CC018
:1018A00020ED280F2A3050F536FE20C08AE0989EA1
:1018B000200D1124922E06C08D3291F0803371F7E5
:1018C000689430F8F30193FD859193FF81913F0176
:1018D0008111DACF21C0689431F8689432F8F2CFE0
:1018E000689433F8EFCF689434F8ECCFEAE02E9E9A
:1018F000200D1124222E689435F8E4CF8E3229F47D
:1019000036FC04C1689436F8DDCF8C3619F468943F
:1019100037F8D8CF8836B1F2982F9F7D9554933001
:10192000E0F08336A1F18337C1F1833509F063C05C
:101930002801F2E04F0E511CF801C080D180692DC2
:1019400070E036FC02C06FEF7FEFC6010E94F00D21
:101950004C01689437F882010AC00C5F1F4FFFE307
:10196000F98388248394912C6501E89437F833FE39
:101970002DC0522C8114910471F5552009F468CFC3
:10198000B70180E290E00E94060E5A94F6CFF8016B
:10199000808189830E5F1F4FE4CF2801F2E04F0E54
:1019A000511CF801C080D180692D70E036FC02C066
:1019B0006FEF7FEFC6010E94FB0D4C018201D5CF76
:1019C000B70180E290E00E94060E2A9428141904C0
:1019D00009F0B0F7CECFF60137FC859137FE819143
:1019E0006F01B70190E00E94060E51105A94F1E089
:1019F0008F1A9108BFCF843619F0893609F077C065
:101A0000F80137FE6BC060817181828193810C5F28
:101A10001F4FF32DFF763F2E97FF09C090958095BD
:101A2000709561957F4F8F4F9F4F689437F82AE0EC
:101A300030E0A5010E94360EC82ECA188C2C432C0B
:101A400036FE0CC0E89440F8C91440F434FE05C0DA
:101A500032FC03C0F32DFE7E4F2E892C44FE95C030
:101A6000FE01EC0DF11D8081803309F087C0242D2B
:101A7000297E422E842D8870582E43FC95C040FE4E
:101A80008FC09C2C821418F42C0C922C981844FEB5
:101A900091C0B70180E390E00E94060E42FE09C0AB
:101AA00088E790E041FE02C088E590E0B7010E941F
:101AB000060EC91408F48AC0CA94D12C9FEFC91A23
:101AC000D90ACA0CDB1CF60182916F01B70190E0C4
:101AD0000E94060EAC14BD04B1F74FCF6081718136
:101AE000072E000C880B990B0E5F1F4F92CFD32C43
:101AF000E894D4F82AE030E0853739F1232D297FA6
:101B0000D22E8F3601F148F48835A9F0F70186818D
:101B100097812B96E2E10C948D0A803749F0883743
:101B2000A9F7D4FE02C06894D2F820E130E00DC0DD
:101B30006894D4F8F6CF34FE03C0822F8660D82E86
:101B400020E132E002C028E030E0F801D7FE0FC00B
:101B500060817181828193810C5F1F4FA5010E947A
:101B6000360EC82ECA183D2CE89437F867CF60812E
:101B7000718190E080E00E5F1F4FF0CF42FC02C009
:101B8000839478CF8394839475CF842D867809F4D9
:101B900071CFF6CFB70180E290E00E94060E8394E9
:101BA0008214C0F3512C73CF522C5818821408F4AD
:101BB0006ECFF8CF842D867809F47BCF8BE241FE7F
:101BC00080E247FC8DE2B70190E071CFB70180E37E
:101BD00090E00E94060E9A946CCF8FEF9FEF99CF02
:101BE000FC010590615070400110D8F780959095E8
:101BF0008E0F9F1F0895FC016150704001900110ED
:101C0000D8F7809590958E0F9F1F08950F931F937F
:101C1000CF93DF93182F092FEB018B8181FD09C032
:101C20001FEF0FEF812F902FDF91CF911F910F9119
:101C3000089582FF14C02E813F818C819D812817D9
:101C400039073CF4E881F981CF01019699838883B3
:101C500010838E819F8101969F838E83E3CFE885D9
:101C6000F985812F0995892BA1F3DACFFA01AA27EB
:101C7000283051F1203181F1E8946F936E7F6E5FCF
:101C80007F4F8F4F9F4FAF4FB1E03ED0B4E03CD07D
:101C9000670F781F891F9A1FA11D680F791F8A1F60
:101CA000911DA11D6A0F711D811D911DA11D20D0C7
:101CB00009F468943F912AE0269F11243019305D81
:101CC0003193DEF6CF010895462F4770405D419372
:101CD000B3E00FD0C9F7F6CF462F4F70405D4A33BF
:101CE00018F0495D31FD4052419302D0A9F7EACF87
:101CF000B4E0A6959795879577956795BA95C9F7B6
:101D000000976105710508959B01AC010A2E0694A8
:101D10005795479537952795BA95C9F7620F731F61
:101D2000841F951FA01D0895F894FFCF0000DE02C8
:101D30008000000000003A019A00C7008701F80007
:101D4000D600EA0000000000DC03AF030B048503AB
:101D5000A80395038603253032643A253032643A6D
:101D60002530326420253032642F253032642F250F
:081D7000303264000D0A00008E
:107E0000112484B714BE81FFF0D085E080938100F7
:107E100082E08093C00088E18093C10086E0809377
:107E2000C20080E18093C4008EE0C9D0259A86E02C
:107E300020E33CEF91E0309385002093840096BBD3
:107E4000B09BFECF1D9AA8958150A9F7CC24DD24C4
:107E500088248394B5E0AB2EA1E19A2EF3E0BF2EE7
:107E6000A2D0813461F49FD0082FAFD0023811F036
:107E7000013811F484E001C083E08DD089C08234E0
:107E800011F484E103C0853419F485E0A6D080C0E4
:107E9000853579F488D0E82EFF2485D0082F10E0AE
:107EA000102F00270E291F29000F111F8ED06801E7
:107EB0006FC0863521F484E090D080E0DECF843638
:107EC00009F040C070D06FD0082F6DD080E0C81688
:107ED00080E7D80618F4F601B7BEE895C0E0D1E017
:107EE00062D089930C17E1F7F0E0CF16F0E7DF06D8
:107EF00018F0F601B7BEE89568D007B600FCFDCFD4
:107F0000A601A0E0B1E02C9130E011968C91119780
:107F100090E0982F8827822B932B1296FA010C0160
:107F200087BEE89511244E5F5F4FF1E0A038BF0790
:107F300051F7F601A7BEE89507B600FCFDCF97BE46
:107F4000E89526C08437B1F42ED02DD0F82E2BD052
:107F50003CD0F601EF2C8F010F5F1F4F84911BD097
:107F6000EA94F801C1F70894C11CD11CFA94CF0C13
:107F7000D11C0EC0853739F428D08EE10CD085E9AC
:107F80000AD08FE07ACF813511F488E018D01DD067
:107F900080E101D065CF982F8091C00085FFFCCF94
:107FA0009093C60008958091C00087FFFCCF809118
:107FB000C00084FD01C0A8958091C6000895E0E648
:107FC000F0E098E1908380830895EDDF803219F02E
:107FD00088E0F5DFFFCF84E1DECF1F93182FE3DFCA
:107FE0001150E9F7F2DF1F91089580E0E8DFEE27F6
:047FF000FF270994CA
:027FFE00040479
:00000001FF
